:10000000A8C0CCC0CBC0CAC0C9C0C8C0C7C0C6C0C9
:10001000C5C0C4C0C3C0C2C0C1C0C0C0BFC06200F0
:100020003A00360032002E002A000100428501000D
:10003000FF8601000084010000830D000000001015
:1000400001001002100000102001102002300000FA
:10005000304001304002700000708001708002F07A
:1000600000000D000000000101000102010000017C
:10007000020101020203000003040103040207005D
:10008000000708010708020F0000BC00B900B40017
:10009000AD00AA00A3009800050203080A0F10157E
:1000A000161B1C0303070D11171B01001D03000283
:1000B0000A0C14160200020A0C010002000C000ACD
:1000C000006400C8002C019001F4015802BC022019
:1000D000038403E8034C04B0040C001E0010275DE9
:1000E00028AA29F82AC02B882C502D182EE02EA8DB
:1000F0002F703038310000FF980087AC0082C300B9
:100100007DDE0078F900731D016E3D0169610164B7
:1001100088015FB3015ADE01550D02503C024B6F5E
:100120000246980241C5023CEF02371903323B03F5
:100130002D5C032878032393031EAD0319BE03141B
:10014000CD030FD8030AE30305E90301FF03000011
:10015000AB0311241FBECFE5D1E0DEBFCDBF10E061
:10016000A0E6B0E0EAE9FCE002C005900D92AA36F4
:10017000B107D9F720E0AAE6B0E001C01D92A6378A
:10018000B207E1F710E0C9EAD0E003C02197FE0111
:100190007CD5C83AD107D1F759D17DC531CFEF927F
:1001A000FF920F931F93CF93DF938C017B01FC0190
:1001B000608180E094D4D82FC0E0CD1750F4F801CE
:1001C000608182E08C0F8BD48E159F0520F4CF5F69
:1001D000F4CF8D2F01C08C2FDF91CF911F910F9104
:1001E000FF90EF900895CF92DF92EF92FF920F93DE
:1001F0001F93CF93DF938C01EB01FC01638181E0BE
:100200006ED46C017801F3E0EF0EF11CBE01C70162
:10021000C6DFF8019281891720F4B6016C0F7D1FAB
:1002200008C0981740F4CC16DD0628F4BE016C19FE
:100230007D09C701B4DFF8018283DF91CF911F915F
:100240000F91FF90EF90DF90CF9008958091740010
:10025000909175009927909375008093740008958C
:10026000CF93DF93EC0161110AC0809174009091EB
:1002700075008F7D9093750080937400E7DFD0FF49
:1002800009C0809174009091750080629093750010
:1002900080937400C0FF09C0809174009091750034
:1002A00090649093750080937400C1FF09C08091A1
:1002B0007400909175009061909375008093740024
:1002C000C2FF09C080917400909175009460909372
:1002D000750080937400C3FF09C0809174009091F1
:1002E000750091609093750080937400C4FF09C0FD
:1002F0008091740090917500906890937500809340
:100300007400C5FF09C080917400909175009062DF
:100310009093750080937400C6FF09C080917400AB
:100320009091750098609093750080937400C7FF5A
:1003300009C080917400909175009260909375004F
:1003400080937400DF91CF910895982F842F492FC7
:10035000D7D360E085CFCF93DF93809174009091E5
:1003600075008F779093750080937400B3D383E00A
:1003700090E00CD281E090E049D2EC0180917400D1
:100380009091750080689093750080937400A2D35B
:1003900083E090E0FBD181E0C93ED34008F480E0E7
:1003A000DF91CF910895811522E0920720F4969570
:1003B0008795809501C080E09FE090BF9CB59378C1
:1003C0009CBD1EBC1BBC9FEF9DBD97B59B7F97BD81
:1003D00099B79F7B99BF8FBD88B7846088BF089508
:1003E00098B7892F847092FF04C088B7846088BF53
:1003F00081E00895F5DF8823E9F3089563D326DFCC
:1004000080917400909175008F7988689093750041
:10041000809374005FC3CF93DF93EC0180917400ED
:10042000909175008062909375008093740052D310
:10043000CE01ACD180917400909175008F7D909326
:10044000750080937400DF91CF9144C3CF93DF9305
:10045000CDB7DEB729970FB6F894DEBF0FBECDBF7C
:10046000F894CCDF82E390E0D6DF86E490E09BDF77
:10047000CE010996A7D284E690E09E838D831F82E9
:1004800018869A8389831B8281E08C8360E0CE0189
:1004900009969FD260DF182F682FCE010996ECD203
:1004A000612FCE010996DFD260E0CE010996BDD260
:1004B00060E0CE010996C8D210E09CDF86E490E0AF
:1004C00072DF81E090E01ED2A82EB12C84E690E08D
:1004D0009DD17C0184E690E0D7D16C01111107C059
:1004E000CE0109969DD2682FCE010996ADD2CE01DC
:1004F0000996B3D2682FCE010996BED22CDF682FA1
:10050000CE010996B0D2CE0109965FD2811105C005
:1005100025E5A216B10408F0A3C0CE01099655D274
:10052000882329F083E3A816B10408F49EC024EEC2
:10053000E21625E2F20630F461E0CE01099658D2C7
:1005400060E099C085EBE8168DE2F80668F060E09F
:10055000CE0109964DD260E0CE01099658D260E0F6
:10056000CE01099662D20BC024E7E21627E2F2061A
:1005700030F4CE01099636D2882309F47BC0CE012F
:1005800009966BD290917300E0917200891309C0B3
:10059000F0E0E659FF4F82818F3F99F08F5F8283B1
:1005A00010C0EF5FE63018F4E093720002C01092C2
:1005B0007200E0917200F0E0E659FF4F12828093E2
:1005C0007300CE0109960ED2882351F0CE01099610
:1005D00027D2811119C0ECE6F0E080E090E006C07F
:1005E000CE0109960ED28111F1CF0EC02191820F5A
:1005F000911D20E0E237F207C9F720916A0030919F
:100600006B0028173907D8F58DE8C816D10430F0EB
:100610008091740090917500877F09C024E6C2160E
:10062000D10448F480917400909175008860909393
:10063000750080937400CE0109960FD2882359F17A
:10064000CE010996C2D1811126C0CE010996CAD128
:100650008823D9F0CE010996E3D1811116C01BC0C1
:1006600061E0CE010996B5D158CF60E0CE01099680
:10067000B0D15DCF61E0CE010996C9D180CF61E0F4
:10068000CE010996D2D110E0BFCF80917400909135
:100690007500806405C080917400909175008F7B17
:1006A0009093750080937400111110C0CE010996CB
:1006B000D4D1882311F0B70102C060E070E0CE0110
:1006C000059691DDB601CE0101968DDD4F81612F3A
:1006D00080E03BDE41E0612F8B8112D261E0C0DD22
:1006E000CE01099672D1882321F040E0612F85E088
:1006F00022C0CE01099694D1811115C0CE01099670
:1007000080D1882329F0CE010996A7D181111AC082
:10071000CE01099667D1882379F0CE0109969DD143
:10072000811115C009C0CE01099688D1811104C07C
:1007300040E0612F84E009DECDD11F5F1E3109F05A
:10074000BCCEBACE40E0612F82E0FFDDE1CF40E0D9
:10075000612F83E0F0CFEAE6F0E088E290E0918359
:100760008083108681E081878FEF828383838483F7
:100770008583868387830895882339F000000000ED
:100780000000000000008150F7CF0895CF93DF9361
:10079000EC01209751F08AEFEFDF8AEFEDDF8AEF6F
:1007A000EBDF8AEFE9DF2197F4CFDF91CF91089556
:1007B000BC98C49882E087B986E986B983B1807411
:1007C00083B9A49A0895BB98C39883E087B986E952
:1007D00086B983B1807483B9A39A0895BA98C298F0
:1007E00081E087B986E986B983B1807483B9A29A1A
:1007F0000895349A369A349BFECF349A24B185B149
:1008000090E0982F8827820F911D0895CF92DF9254
:10081000EF92FF920F931F93CF93DF93EC01C736B4
:1008200081E2D80710F0C6E6D1E2CDDFE2DF00E0DA
:1008300010E0C12CD12C76010C171D0741F0D9DF37
:10084000C80ED91EE11CF11C0F5F1F4FF5CF2BEE18
:1008500031E040E050E0C701B601C8D129E130E005
:1008600040E050E0F0D1CA01B901980140E050E009
:10087000EAD1C9014096DF91CF911F910F91FF906E
:10088000EF90DF90CF900895CF92DF92EF92FF929A
:100890000F931F93CF93DF93EC01C23F88E3D807F8
:1008A00010F0C1EFD8E384DFA4DF00E010E0C12C3A
:1008B000D12C76010C171D0741F09BDFC80ED91E05
:1008C000E11CF11C0F5F1F4FF5CF20E231E040E04B
:1008D00050E0C701B6018AD12DE730E040E050E09A
:1008E000B2D1CA01B901980140E050E0ACD1C901D0
:1008F0000896DF91CF911F910F91FF90EF90DF90BD
:10090000CF9008957F928F929F92AF92BF92CF9295
:10091000DF92EF92FF920F931F93CF93DF938C019F
:100920005DDF67DFC0E0D0E0C12CD12C7601C017BD
:10093000D10739F05EDFC80ED91EE11CF11C2196EB
:10094000F6CF9E0140E050E0C701B6017CD14901DD
:100950005A01690125D1782EC1E0C71520F5DFEFD6
:10096000DC0F8D2F1FD17C018C2F1CD18C01CE145C
:10097000DF04B8F08C159D05A0F08D2F1DD1D82F68
:100980008C2F1AD18E189F086D2F70E0681B71098B
:10099000C4011BD1B8016E197F0941D18D2F861B6F
:1009A00003C0CF5FDACF8FEFDF91CF911F910F910F
:1009B000FF90EF90DF90CF90BF90AF909F908F907F
:1009C0007F900895FC0110820895FC018081817060
:1009D0000895FC019081662311F0916001C09E7F13
:1009E00090830895FC01808182FB882780F9089517
:1009F000FC019081662311F0946001C09B7F90837D
:100A00000895FC01808183FB882780F90895FC010B
:100A10009081662311F0986001C0977F90830895BC
:100A2000FC018081829581700895FC01908166238C
:100A300011F0906101C09F7E90830895FC01808138
:100A400085FB882780F90895FC019081662311F0C9
:100A5000906201C09F7D90830895FC01808186FB98
:100A6000882780F90895FC019081662311F0906435
:100A700001C09F7B90830895FC019081662311F053
:100A8000906801C09F7790830895C19808950F934F
:100A90001F93CF93DF938C01F8DF8CE36DDEE801C9
:100AA00010E1D7FF02C0C09A01C0C098C19A11508E
:100AB00021F0EBDFCC0FDD1FF4CFDF91CF911F9141
:100AC0000F910895E2DFC09887B3836087BB80E011
:100AD00090E0DDCF8091740090917500D8CFE62F23
:100AE000F0E0EE0FFF1FEA59FF4F0190F081E02D7B
:100AF00090E0880F991FE80FF91F8591959108954F
:100B0000CF93DF93262F4F3F09F445C0E42FF0E049
:100B1000EE0FFF1FE25EFF4F0590F491E02D9491E0
:100B20008917C8F590E063E070E04FD00196BF01EF
:100B3000680F791FFB0195918491FB013296E49136
:100B40003E2F331F3327331F811102C0E7FF1DC023
:100B5000EF77F0E0EE0FFF1FE657FF4FC591D591FD
:100B6000FE012196559140E0451751F0FE01A591F7
:100B7000649122962A1710F0621720F44F5FF4CF89
:100B800020E001C02FEF82233223892B90E0332312
:100B900021F0916002C080E090E0DF91CF91089554
:100BA0008EE1089590E063E070E00FD08B509F4F8E
:100BB000FC0185919591089590E063E070E005D087
:100BC00089509F4FFC01849108950024552704C04B
:100BD000080E591F880F991F009729F07695679581
:100BE000B8F37105B9F7802D952F0895EE27FF27EB
:100BF000AA27BB2708C0A20FB31FE41FF51F220FAF
:100C0000331F441F551F969587957795679598F3E1
:100C10007040A9F7009799F7BD01CF010895AA1B6D
:100C2000BB1B51E107C0AA1FBB1FA617B70710F0D7
:100C3000A61BB70B881F991F5A95A9F78095909509
:100C4000BC01CD010895A1E21A2EAA1BBB1BFD0118
:100C50000DC0AA1FBB1FEE1FFF1FA217B307E4079B
:100C6000F50720F0A21BB30BE40BF50B661F771FF3
:100C7000881F991F1A9469F76095709580959095D3
:100C80009B01AC01BD01CF010895EE0FFF1F059040
:0A0C9000F491E02D0994F894FFCFD1
:0A0C9A0000000000F300D900BD00C7
:00000001FF
