S0250000426174746572794C616D70496E766572746572436F6E74726F6C6C65722E7372656327
S11300003BC04AC049C048C047C046C045C044C0C0
S113001043C042C041C040C03FC03EC03DC00000DC
S1130020FF980087AC0082C3007DDE0078F900737E
S11300301D016E3D016961016488015FB3015ADEEF
S113004001550D02503C024B6F0246980241C50215
S11300503CEF02371903323B032D5C03287803235A
S113006093031EAD0319BE0314CD030FD8030AE393
S11300700305E90301FF030011241FBECFE5D1E00E
S1130080DEBFCDBF20E0A0E6B0E001C01D92A236E5
S1130090B207E1F757D07CC3B3CFCF93DF9377D2C6
S11300A0FDD283E090E0DBD081E090E018D1EC0158
S11300B064D2F4D283E090E0D2D081E0C93ED34050
S11300C008F480E0DF91CF910895811522E0920732
S11300D020F496958795809501C080E09FE090BFBD
S11300E09CB593789CBD1EBC1BBC9FEF9DBD97B572
S11300F09B7F97BD99B79F7B99BF8FBD88B784605D
S113010088BF089598B7892F847092FF04C088B778
S1130110846088BF81E00895F5DF8823E9F30895BA
S1130120B5D28FD202D215D21ED227D2B7C2CF9364
S1130130DF93EC01F0D1B2D2CE0191D0F6D1DF91B0
S1130140CF91ACC2CF93DF931F92CDB7DEB7F894B3
S1130150E7DF84E690E0EBDF84E690E0B6DFCE01F3
S1130160019699D160E0CE0101969CD1CE01019611
S1130170BAD1182F682FCE010196C4D1612FCE01B8
S11301800196B7D1C9DF84E690E09FDF81E090E07B
S113019022D1082F10E084E690E0A1D07C0184E60F
S11301A090E0DBD06C01CE0101969DD1682FCE0189
S11301B00196A8D172DF682FCE0101969AD1CE01A3
S11301C001966CD1811103C005351105A0F5CE014E
S11301D0019664D1882319F00333110588F184EE64
S11301E0E81685E2F80610F461E006C085EBE8162F
S11301F08DE2F80648F060E0CE01019662D160E03D
S1130200CE01019667D10AC084E7E81687E2F806B2
S113021028F4CE0101964FD1882389F38DE8C816BE
S1130220D10410F08CD1AECF84E6C816D10408F006
S1130230A9CF8FD1A7CF61E0CE01019633D1C7CF2B
S113024060E0CE0101962ED1CACF882339F0000098
S113025000000000000000008150F7CF0895CF9304
S1130260DF93EC01209751F08AEFEFDF8AEFEDDFA7
S11302708AEFEBDF8AEFE9DF2197F4CFDF91CF91AB
S11302800895BC98C49882E087B986E986B983B199
S1130290807483B9A49A0895BB98C39883E087B9FE
S11302A086E986B983B1807483B9A39A0895BA980C
S11302B0C29881E087B986E986B983B1807483B92D
S11302C0A29A0895349A369A349BFECF349A24B174
S11302D085B190E0982F8827820F911D0895CF92C1
S11302E0DF92EF92FF920F931F93CF93DF93EC0172
S11302F0C73681E2D80710F0C6E6D1E2CDDFE2DFEF
S113030000E010E0C12CD12C76010C171D0741F040
S1130310D9DFC80ED91EE11CF11C0F5F1F4FF5CFAA
S11303202BEE31E040E050E0C701B601E2D129E113
S113033030E040E050E00AD2CA01B901980140E03F
S113034050E004D2C9014096DF91CF911F910F91E3
S1130350FF90EF90DF90CF900895CF92DF92EF92CD
S1130360FF920F931F93CF93DF93EC01C23F88E377
S1130370D80710F0C1EFD8E384DFA4DF00E010E079
S1130380C12CD12C76010C171D0741F09BDFC80E40
S1130390D91EE11CF11C0F5F1F4FF5CF20E231E0A5
S11303A040E050E0C701B601A4D12DE730E040E0C1
S11303B050E0CCD1CA01B901980140E050E0C6D167
S11303C0C9010896DF91CF911F910F91FF90EF9093
S11303D0DF90CF9008957F928F929F92AF92BF92B9
S11303E0CF92DF92EF92FF920F931F93CF93DF93FD
S11303F08C015DDF67DFC0E0D0E0C12CD12C760139
S1130400C017D10739F05EDFC80ED91EE11CF11CFC
S11304102196F6CF9E0140E050E0C701B60196D187
S113042049015A0169013FD1782EC1E0C71520F571
S1130430DFEFDC0F8D2F39D17C018C2F36D18C016D
S1130440CE14DF04B8F08C159D05A0F08D2F37D1A4
S1130450D82F8C2F34D18E189F086D2F70E0681B15
S11304607109C40135D1B8016E197F095BD18D2F93
S1130470861B03C0CF5FDACF8FEFDF91CF911F913F
S11304800F91FF90EF90DF90CF90BF90AF909F902F
S11304908F907F900895FC0110820895FC01808163
S11304A081700895FC019081662311F0916001C070
S11304B09E7F90830895FC01808182FB882780F9C8
S11304C00895FC019081662311F0946001C09B7F24
S11304D090830895FC019081662311F0986001C017
S11304E0977F90830895FC01808185FB882780F99C
S11304F00895FC019081662311F0906201C09F7DF4
S113050090830895FC019081662311F0906401C0EA
S11305109F7B908308958091600090916100806238
S113052090936100809360000895809160009091A1
S113053061008F7D909361008093600008958091A5
S1130540600090916100877F9093610080936000C8
S1130550089580916000909161008860909361009B
S113056080936000089580916000909161008F7B7A
S11305709093610080936000089580916000909151
S11305806100806890936100809360000895809179
S11305906000909161008F77909361008093600078
S11305A0089580916000909161009E7F9093610016
S11305B080936000089580916000909161009B7F1A
S11305C09093610080936000089580916000909101
S11305D061009F7E909361008093600008958091F4
S11305E06000909161009F7B909361008093600014
S11305F0089580916000909161009F7790936100CD
S113060080936000089580916000909161009F7DC7
S113061090936100809360000895809160009091B0
S11306206100977F909361008093600008958091AA
S11306306000909161009D7F9093610080936000C1
S11306400895F5DFEADFDFDFD4DFC9DFBEDFB3DF24
S1130650A8CFC19808950F931F93CF93DF938C0174
S1130660F8DF8CE3F2DDE80110E1D7FF02C0C09AA5
S113067001C0C098C19A115021F0EBDFCC0FDD1FEF
S1130680F4CFDF91CF911F910F910895E2DFC098CD
S113069087B3836087BB80E090E0DDCF809160000A
S11306A090916100D8CF8EE1089590E063E070E00E
S11306B00FD0825E9F4FFC0185919591089590E043
S11306C063E070E005D0805E9F4FFC018491089543
S11306D00024552704C0080E591F880F991F00973E
S11306E029F076956795B8F37105B9F7802D952FA4
S11306F00895EE27FF27AA27BB2708C0A20FB31F20
S1130700E41FF51F220F331F441F551F969587952D
S11307107795679598F37040A9F7009799F7BD010D
S1130720CF010895AA1BBB1B51E107C0AA1FBB1F21
S1130730A617B70710F0A61BB70B881F991F5A9569
S1130740A9F780959095BC01CD010895A1E21A2ED8
S1130750AA1BBB1BFD010DC0AA1FBB1FEE1FFF1F61
S1130760A217B307E407F50720F0A21BB30BE40BB1
S1130770F50B661F771F881F991F1A9469F76095F8
S11307807095809590959B01AC01BD01CF010895B2
S1070790F894FFCF07
S9030000FC
