:10000000B2C0D6C0D5C0D4C0D3C0D2C0D1C0D0C079
:10001000CFC0CEC0CDC0CCC0CBC0CAC0C9C06800A4
:1000200040003C003800340030002C000100008704
:10003000010042850100FF86010000840100008369
:100040000D0000000010010010021000001020013F
:10005000102002300000304001304002700000707B
:100060008001708002F000000D000000000101001E
:100070000102010000010201010202030000030469
:10008000010304020700000708010708020F00002F
:10009000D100CE00C900C200BF00B800AD00A00072
:1000A00006020306070C0D101116171A1B05020392
:1000B000080A0F1015161B1C0303070D11171B014F
:1000C000001D0300020A0C14160200020A0C0100B3
:1000D00002000C001400C800900158022003E8033D
:1000E000B004780540060807D0079808FC080C0003
:1000F0001E0010275D28AA29F82AC02B882C502D15
:10010000182EE02EA82F703038310000FF9800879D
:10011000AC0082C3007DDE0078F900731D016E3DE6
:10012000016961016488015FB3015ADE01550D0266
:10013000503C024B6F0246980241C5023CEF023729
:100140001903323B032D5C032878032393031EAD70
:100150000319BE0314CD030FD8030AE30305E90313
:1001600001FF0300820311241FBECFE5D1E0DEBFF3
:10017000CDBF10E0A0E6B0E0E0E8FBE002C00590F3
:100180000D92AA36B107D9F720E0AAE6B0E001C087
:100190001D92A637B207E1F710E0C3EBD0E003C031
:1001A0002197FE01E5D4C23BD107D1F759D1E6C46E
:1001B00027CFEF92FF920F931F93CF93DF938C0182
:1001C0007B01FC01608180E0FDD3D82FC0E0CD171A
:1001D00050F4F801608182E08C0FF4D38E159F05F6
:1001E00020F4CF5FF4CF8D2F01C08C2FDF91CF9102
:1001F0001F910F91FF90EF900895CF92DF92EF92B1
:10020000FF920F931F93CF93DF938C01EB01FC01BF
:10021000638181E0D7D36C017801F3E0EF0EF11C2C
:10022000BE01C701C6DFF8019281891720F4B6012B
:100230006C0F7D1F08C0981740F4CC16DD0628F41B
:10024000BE016C197D09C701B4DFF8018283DF911B
:10025000CF911F910F91FF90EF90DF90CF90089575
:100260008091740090917500992790937500809308
:1002700074000895CF93DF93EC0161110AC080915F
:100280007400909175008F7D909375008093740039
:10029000E7DFD0FF09C08091740090917500806203
:1002A0009093750080937400C0FF09C08091740022
:1002B0009091750090649093750080937400C1FFD5
:1002C00009C08091740090917500906190937500C1
:1002D00080937400C2FF09C08091740090917500F2
:1002E00094609093750080937400C3FF09C080915F
:1002F00074009091750091609093750080937400E4
:10030000C4FF09C08091740090917500906890932B
:10031000750080937400C5FF09C0809174009091AE
:10032000750090629093750080937400C6FF09C0B9
:1003300080917400909175009860909375008093FF
:100340007400C7FF09C0809174009091750092609D
:100350009093750080937400DF91CF910895982F4A
:10036000842F492F40D360E085CFCF93DF938091D6
:100370007400909175008F7790937500809374004E
:100380001CD383E090E0D9D181E090E016D2EC015B
:1003900080917400909175008068909375008093AF
:1003A00074000BD383E090E0C8D181E0C93ED34014
:1003B00008F480E0DF91CF910895811522E0920743
:1003C00020F496958795809501C080E09FE090BFCE
:1003D0009CB593789CBD1EBC1BBC9FEF9DBD97B583
:1003E0009B7F97BD99B79F7B99BF8FBD88B784606E
:1003F00088BF089598B7892F847092FF04C088B78A
:10040000846088BF81E00895F5DF8823E9F30895CB
:10041000CCD226DF80917400909175008F79886826
:100420009093750080937400C8C2CF93DF93EC0162
:100430008091740090917500806290937500809314
:100440007400BBD2CE0179D1809174009091750077
:100450008F7D9093750080937400DF91CF91ADC232
:10046000CF93DF93CDB7DEB728970FB6F894DEBFF2
:100470000FBECDBFF894CCDF82E390E0D6DF86E4F8
:1004800090E09BDF84E690E09E838D831F82188638
:100490009A8389831B8281E08C8367DF882319F02C
:1004A00000EC10E002C000E010E00F7C32E7832E89
:1004B00030E0932EF12CA8DF86E490E07EDF81E02F
:1004C00090E0F6D1C82ED12C84E690E076D13C01A4
:1004D00084E690E0B0D15C01F11006C004FF02C0D8
:1004E000006201C00F7D1D7F06FF02C0006801C0D1
:1004F0000F773BDF882311F0006401C00F7B00FD04
:1005000005C025E5C216D10408F08DC000FF05C066
:1005100083E3C816D10408F488C024EE621625E2ED
:10052000720618F4077F046016C085EB68168DE22A
:10053000780610F0037E0FC002FD0DC024E762169E
:1005400027E2720610F4086006C08DE3681688E2A0
:10055000780608F0077FC80126E0969587952A95CA
:10056000E1F7817090917300E0917200981309C0D7
:10057000F0E0E659FF4F82818F3F99F08F5F8283D1
:1005800010C0EF5FE63018F4E093720002C01092E2
:100590007200E0917200F0E0E659FF4F1282809302
:1005A0007300C8018C709927892B99F004FD11C044
:1005B000ECE6F0E080E090E02191820F911D8E1634
:1005C0009F06D1F720916A0030916B0028173907F8
:1005D00070F580917400909175002DE2A21621E0D3
:1005E000B20630F098012074332706FF23C014C0F0
:1005F0002EE0A21621E0B20650F410FF02C01260F5
:10060000F12C886090937500809374001E7F980190
:100610002074332706FF15C000FD13C002FF5CC025
:1006200004FD5AC00EC0016071CF0E7F76CF00610D
:10063000F12CCFCF877F9093750080937400116069
:10064000E6CF80917400909175008F7B9093750038
:1006500080937400F1100DC0232B11F0B30102C080
:1006600060E070E0CE010596C8DDB501CE010196CF
:10067000C4DD4F816F2D80E072DE41E06F2D8B81F4
:10068000B2D161E0F7DD11FF06C046E06F2D80E0DA
:10069000AAD161E0EFDD00FF04C040E06F2D85E0EE
:1006A00014C004FD0DC0C8018874992788349105D1
:1006B00001F1C8018474992784349105F9F006C0CA
:1006C00005FD04C040E06F2D84E049DE76D1F3944F
:1006D0008EE1F812F0CEEECE80917400909175000C
:1006E00080649093750080937400FF2009F4B6CF66
:1006F000C0CF40E06F2D82E032DEDBCF40E06F2DD7
:1007000083E0E3CFEAE6F0E088E290E09183808343
:10071000108681E081878FEF828383838483858342
:10072000868387830895882339F000000000000045
:10073000000000008150F7CF0895CF93DF93EC01C4
:10074000209751F08AEFEFDF8AEFEDDF8AEFEBDFE2
:100750008AEFE9DF2197F4CFDF91CF910895BC981C
:10076000C49882E087B986E986B983B1807483B979
:10077000A49A0895BB98C39883E087B986E986B99F
:1007800083B1807483B9A39A0895BA98C29881E01E
:1007900087B986E986B983B1807483B9A29A08952E
:1007A000349A369A349BFECF349A24B185B190E0C6
:1007B000982F8827820F911D0895CF92DF92EF9294
:1007C000FF920F931F93CF93DF93EC01C73681E223
:1007D000D80710F0C6E6D1E2CDDFE2DF00E010E09E
:1007E000C12CD12C76010C171D0741F0D9DFC80EA2
:1007F000D91EE11CF11C0F5F1F4FF5CF2BEE31E02E
:1008000040E050E0C701B60164D129E130E040E0AA
:1008100050E08CD1CA01B901980140E050E086D186
:10082000C9014096DF91CF911F910F91FF90EF90FA
:10083000DF90CF900895CF92DF92EF92FF920F93C7
:100840001F93CF93DF93EC01C03C83E9D80710F0EE
:10085000CFEBD3E984DFA4DF00E010E0C12CD12C82
:1008600076010C171D0741F09BDFC80ED91EE11C55
:10087000F11C0F5F1F4FF5CF2FE630E040E050E056
:10088000C701B60126D129E130E040E050E04ED169
:10089000CA01B901980140E050E048D1C901DF9197
:1008A000CF911F910F91FF90EF90DF90CF9008951F
:1008B0007F928F929F92AF92BF92CF92DF92EF92F0
:1008C000FF920F931F93CF93DF938C015EDF68DF5E
:1008D000C0E0D0E0C12CD12C7601C017D10739F08F
:1008E0005FDFC80ED91EE11CF11C2196F6CF9E01D8
:1008F00040E050E0C701B60119D149015A01690130
:10090000C2D0782EC1E0C71520F5DFEFDC0F8D2FA8
:10091000BCD07C018C2FB9D08C01CE14DF04B8F090
:100920008C159D05A0F08D2FBAD0D82F8C2FB7D065
:100930008E189F086D2F70E0681B7109C401B8D034
:10094000B8016E197F09DED08D2F861B03C0CF5FE3
:10095000DACF8FEFDF91CF911F910F91FF90EF9042
:10096000DF90CF90BF90AF909F908F907F90089531
:10097000C19808950F931F93CF93DF938C01F8DFF5
:100980008CE3D1DEE80110E1D7FF02C0C09A01C0BC
:10099000C098C19A115021F0EBDFCC0FDD1FF4CFCE
:1009A000DF91CF911F910F910895E2DFC09887B337
:1009B000836087BB80E090E0DDCF809174009091F0
:1009C0007500D8CFE62FF0E0EE0FFF1FEA59FF4F7A
:1009D0000190F081E02D90E0880F991FE80FF91F3A
:1009E000859195910895CF93DF93262F4F3F09F47A
:1009F00045C0E42FF0E0EE0FFF1FE25EFF4F0590D1
:100A0000F491E02D94918917C8F590E063E070E0CF
:100A10004FD00196BF01680F791FFB01959184911A
:100A2000FB013296E4913E2F331F3327331F811190
:100A300002C0E7FF1DC0EF77F0E0EE0FFF1FE057A9
:100A4000FF4FC591D591FE012196559140E0451784
:100A500051F0FE01A591649122962A1710F06217B9
:100A600020F44F5FF4CF20E001C02FEF8223322328
:100A7000892B90E0332321F0916002C080E090E068
:100A8000DF91CF9108958EE1089590E063E070E0EA
:100A90000FD0865F9E4FFC0185919591089590E05F
:100AA00063E070E005D0845F9E4FFC01849108955F
:100AB0000024552704C0080E591F880F991F00975E
:100AC00029F076956795B8F37105B9F7802D952FC4
:100AD0000895EE27FF27AA27BB2708C0A20FB31F40
:100AE000E41FF51F220F331F441F551F969587954E
:100AF0007795679598F37040A9F7009799F7BD012E
:100B0000CF010895AA1BBB1B51E107C0AA1FBB1F41
:100B1000A617B70710F0A61BB70B881F991F5A9589
:100B2000A9F780959095BC01CD010895A1E21A2EF8
:100B3000AA1BBB1BFD010DC0AA1FBB1FEE1FFF1F81
:100B4000A217B307E407F50720F0A21BB30BE40BD1
:100B5000F50B661F771F881F991F1A9469F7609518
:100B60007095809590959B01AC01BD01CF010895D2
:100B7000EE0FFF1F0590F491E02D0994F894FFCF3C
:0A0B800000000000FD00EE00D200AE
:00000001FF
