S0250000426174746572794C616D70496E766572746572436F6E74726F6C6C65722E7372656327
S113000068C08CC08BC08AC089C088C087C086C0C5
S113001085C084C083C082C081C080C07FC000000E
S1130020000100000101001111111311111313112A
S11300303333333733333737337777777F77777F94
S11300407F77FFFFFF6400C8002C019001F4015882
S113005002BC0220038403E8034C04B00410275DAF
S113006028AA29F82AC02B882C502D182EE02EA857
S11300702F703038310000FF980087AC0082C30035
S11300807DDE0078F900731D016E3D016961016434
S113009088015FB3015ADE01550D02503C024B6FDB
S11300A00246980241C5023CEF02371903323B0372
S11300B02D5C032878032393031EAD0319BE031498
S11300C0CD030FD8030AE30305E90301FF0300008E
S11300D0750211241FBECFE5D1E0DEBFCDBF10E015
S11300E0A0E6B0E0ECEBFBE002C005900D92A43773
S11300F0B107D9F720E0A4E7B0E001C01D92A03811
S1130100B207E1F710E0C9E6D0E003C02197FE0191
S11301104DD5C836D107D1F7DAD04EC571CF862F69
S1130120ADC4AAC4B4C4862FB4C4CF938430B0F091
S11301308A3050F08E3050F0843150F0883158F0CD
S11301408E3160F4C1E008C0C1E009C0C0E001C064
S1130150C1E091E005C0C0E092E002C0C0E090E0E0
S1130160862F63E0BAD4890F9DD4CC2311F08295F5
S11301708F70CF910895EF92FF920F931F93CF93B7
S1130180DF938C017B01DC01ED91FC910280F38112
S1130190E02D0995D82FC0E0CD1771F0D801ED916D
S11301A0FC910480F581E02D6C2FC80109958E1512
S11301B09F0510F4CF5FF0CF8C2FDF91CF911F916B
S11301C00F91FF90EF900895EF92FF920F931F937A
S11301D0CF93DF93EC018B017A018B81811114C0E1
S11301E0CE01C9DF9A81891720F4B8016E0D7F1DF5
S11301F008C0981740F4E016F10628F4B8016E1907
S11302007F09CE01B8DF8A838B818E3110F48F5F32
S113021001C080E08B83DF91CF911F910F91FF90FC
S1130220EF900895CF93DF932BD321D483E090E014
S113023077D181E090E0B4D1EC0118D318D483E0F5
S113024090E06ED181E0C93ED34008F480E0DF91B4
S1130250CF910895811522E0920720F49695879511
S1130260809501C080E09FE090BF9CB593789CBDD1
S11302701EBC1BBC9FEF9DBD97B59B7F97BD99B7D7
S11302809F7B99BF8FBD88B7846088BF089598B756
S1130290892F847092FF04C088B7846088BF81E08E
S11302A00895F5DF8823E9F30895D9D3B3D3ACD205
S11302B0BFD2D2D2DBD2DBC3CF93DF93EC019AD28D
S11302C0D6D3CE012DD1A0D2DF91CF91D0C3CF937D
S11302D0DF93CDB7DEB729970FB6F894DEBF0FBE14
S11302E0CDBFF894E2DF84E690E0E6DF84E690E0B8
S11302F0B1DFCE01099630D260E0CE01099633D247
S1130300CE0109965FD2182F682FCE01099669D2C3
S1130310612FCE0109965CD21F82188684E690E094
S11303209E838D831B821C828EE690E09A83898350
S1130330B8DF84E190E08EDF81E090E0ADD1C82E9B
S1130340D12C84E690E02CD18C0184E690E066D137
S11303507C01CE01099636D2682FCE01099641D28E
S113036061DF682FCE01099633D2CE010996F7D109
S1130370811105C025E5C216D10408F0A7C0CE013D
S11303800996EDD1882329F083E3C816D10408F433
S1130390A2C0043E25E2120710F461E005C0053B4B
S11303A08DE2180748F060E0CE010996EBD160E0D9
S11303B0CE010996F0D109C0043727E2120728F4C8
S11303C0CE010996D9D1882391F38DE8E816F1047A
S11303D010F024D205C024E6E216F10408F428D271
S11303E0CE010996EFD190917D00E0917C008913B4
S11303F009C0F0E0EC58FF4F82818F3F81F08F5F9E
S113040082830DC0E63010F4EF5F01C0E0E0E093BA
S11304107C00F0E0EC58FF4F128280937D00CE0107
S11304200996AAD18823C1F0CE010996BDD18111C4
S113043013C0E6E7F0E080E090E02191820F911D87
S113044020E0EC37F207C9F7209174003091750071
S11304502817390708F044C04EE150E0B801CE0136
S11304600596B2DE6F81888560DE182F81703CD2DC
S113047011FB882780F92AD212FB882780F918D229
S113048013FB882780F906D24AE050E0B701CE0179
S113049001969ADE6B818C8148DE182F81705CD2C4
S11304A011FB882780F94AD212FB882780F938D2B9
S11304B013FB882780F926D2CE01099683D188239D
S11304C011F0C0D101C0C8D1D2D232CF61E0CE0187
S11304D0099649D154CF60E0CE01099644D159CF51
S11304E061E0CE01099665D1B7CFE4E7F0E08EE193
S11304F090E091838083108681E081878FEF8283EF
S1130500838384838583868387830895882339F04E
S1130510000000000000000000008150F7CF0895A3
S1130520CF93DF93EC01209751F08AEFEFDF8AEF4E
S1130530EDDF8AEFEBDF8AEFE9DF2197F4CFDF917C
S1130540CF910895BC98C49882E087B986E986B9AA
S113055083B1807483B9A49A0895BB98C39883E047
S113056087B986E986B983B1807483B9A39A08955B
S1130570BA98C29881E087B986E986B983B1807454
S113058083B9A29A0895349A369A349BFECF349A4A
S113059024B185B190E0982F8827820F911D08958A
S11305A0CF92DF92EF92FF920F931F93CF93DF933B
S11305B0EC01C73681E2D80710F0C6E6D1E2CDDF00
S11305C0E2DF00E010E0C12CD12C76010C171D07EE
S11305D041F0D9DFC80ED91EE11CF11C0F5F1F4F7B
S11305E0F5CF2BEE31E040E050E0C701B6018FD2E9
S11305F029E130E040E050E0B7D2CA01B9019801E6
S113060040E050E0B1D2C9014096DF91CF911F91F3
S11306100F91FF90EF90DF90CF900895CF92DF92EB
S1130620EF92FF920F931F93CF93DF93EC01C23F9E
S113063088E3D80710F0C1EFD8E384DFA4DF00E03B
S113064010E0C12CD12C76010C171D0741F09BDF63
S1130650C80ED91EE11CF11C0F5F1F4FF5CF20E21D
S113066031E040E050E0C701B60151D22DE730E05F
S113067040E050E079D2CA01B901980140E050E06D
S113068073D2C9010896DF91CF911F910F91FF900A
S1130690EF90DF90CF9008957F928F929F92AF92C8
S11306A0BF92CF92DF92EF92FF920F931F93CF935B
S11306B0DF938C015DDF67DFC0E0D0E0C12CD12C7B
S11306C07601C017D10739F05EDFC80ED91EE11CD0
S11306D0F11C2196F6CF9E0140E050E0C701B6011F
S11306E043D249015A016901E3D1782EC1E0C7150B
S11306F020F5DFEFDC0F8D2FDDD17C018C2FDAD1DB
S11307008C01CE14DF04B8F08C159D05A0F08D2F5C
S1130710DBD1D82F8C2FD8D18E189F086D2F70E085
S1130720681B7109C401E2D1B8016E197F0908D2AE
S11307308D2F861B03C0CF5FDACF8FEFDF91CF9170
S11307401F910F91FF90EF90DF90CF90BF90AF90EB
S11307509F908F907F900895FC0110820895FC0172
S1130760808181700895FC019081662311F091606D
S113077001C09E7F90830895FC01808182FB8827BD
S113078080F90895FC019081662311F0946001C002
S11307909B7F90830895FC019081662311F09860FB
S11307A001C0977F90830895FC01808182958170B8
S11307B00895FC019081662311F0906101C09F7E31
S11307C090830895FC01808185FB882780F9089532
S11307D0FC019081662311F0906201C09F7D90839B
S11307E00895FC019081662311F0906401C09F7B01
S11307F09083089580917E0090917F008062909311
S11308007F0080937E00089580917E0090917F0008
S11308108F7D90937F0080937E00089580917E0069
S113082090917F00877F90937F0080937E0008954E
S113083080917E0090917F00886090937F008093E8
S11308407E00089580917E0090917F008064909353
S11308507F0080937E00089580917E0090917F00B8
S11308608F7B90937F0080937E00089580917E001B
S113087090917F00806890937F0080937E0008951C
S113088080917E0090917F008F7790937F0080937A
S11308907E00089520917E0030917F00882311F01E
S11308A0316001C03E7F30937F0020937E00089525
S11308B020917E0030917F00882311F0346001C0C4
S11308C03B7F30937F0020937E00089520917E002B
S11308D030917F00882311F0306101C03F7E309356
S11308E07F0020937E00089520917E0030917F0048
S11308F0882311F0306401C03F7B30937F00209344
S11309007E00089520917E0030917F00882311F0AD
S1130910306801C03F7730937F0020937E000895B4
S113092020917E0030917F00882311F0306201C055
S11309303F7D30937F0020937E00089520917E00B8
S113094030917F00882311F0386001C0377F3093E5
S11309507F0020937E00089520917E0030917F00D7
S1130960882311F0326001C03D7F30937F002093D3
S11309707E00089580917E0090917F009E7F9093E9
S11309807F0080937E00089580917E0090917F0087
S11309909B7F90937F0080937E00089580917E00DA
S11309A090917F009F7E90937F0080937E000895B6
S11309B080917E0090917F009F7B90937F00809335
S11309C07E00089580917E0090917F009F779093A0
S11309D07F0080937E00089580917E0090917F0037
S11309E09F7D90937F0080937E00089580917E0088
S11309F090917F00977F90937F0080937E0008956D
S1130A0080917E0090917F009D7F90937F008093E2
S1130A107E000895F5DFEADFDFDFD4DFC9DFBEDF64
S1130A20B3DFA8CFC19808950F931F93CF93DF939B
S1130A308C01F8DF8CE36ADDE80110E1D7FF02C026
S1130A40C09A01C0C098C19A115021F0EBDFCC0FBD
S1130A50DD1FF4CFDF91CF911F910F910895E2DF55
S1130A60C09887B3836087BB80E090E0DDCF80913E
S1130A707E0090917F00D8CF8CE00895E82FF0E0BD
S1130A80EE0FFF1FE35AFF4F8591959108958CE077
S1130A900895E82FF0E0EE0FFF1FEB5BFF4F859109
S1130AA095910895E82FF0E0E25EFF4F8491089558
S1130AB08EE1089590E063E070E018D08B589F4F6A
S1130AC0FC0185919591089590E063E070E00ED06B
S1130AD089589F4FFC0184910895002480FD060EDF
S1130AE0660F11F08695D1F7802D089500245527BF
S1130AF004C0080E591F880F991F009729F0769596
S1130B006795B8F37105B9F7802D952F0895EE27F1
S1130B10FF27AA27BB2708C0A20FB31FE41FF51F96
S1130B20220F331F441F551F969587957795679518
S1130B3098F37040A9F7009799F7BD01CF01089584
S1130B40AA1BBB1B51E107C0AA1FBB1FA617B707EF
S1130B5010F0A61BB70B881F991F5A95A9F780950B
S1130B609095BC01CD010895A1E21A2EAA1BBB1BCE
S1130B70FD010DC0AA1FBB1FEE1FFF1FA217B30765
S1130B80E407F50720F0A21BB30BE40BF50B661F7B
S1130B90771F881F991F1A9469F76095709580953F
S1130BA090959B01AC01BD01CF010895EE0FFF1F8D
S10F0BB00590F491E02D0994F894FFCF17
S1130BBC00000000E40091008F0000000000E4003D
S1070BCC92009300FC
S9030000FC
