S0250000426174746572794C616D70496E766572746572436F6E74726F6C6C65722E7372656327
S11300005CC080C07FC07EC07DC07CC07BC07AC025
S113001079C078C077C076C075C074C073C0000062
S1130020000100000101001111111311111313112A
S11300303333333733333737337777777F77777F94
S11300407F77FFFFFF10275D28AA29F82AC02B8895
S11300502C502D182EE02EA82F703038310000FFC0
S1130060980087AC0082C3007DDE0078F900731D20
S1130070016E3D016961016488015FB3015ADE01CB
S1130080550D02503C024B6F0246980241C5023C9A
S1130090EF02371903323B032D5C032878032393C3
S11300A0031EAD0319BE0314CD030FD8030AE303E3
S11300B005E90301FF030000FC0111241FBECFE585
S11300C0D1E0DEBFCDBF10E0A0E6B0E0E0E3FAE0AF
S11300D002C005900D92AA36B107D9F720E0AAE62E
S11300E0B0E001C01D92A637B207E1F710E0CDE5FC
S11300F0D0E003C02197FE0193D4CC35D107D1F7CA
S113010063D094C47DCFFC0192819E3110F49F5F33
S113011001C090E092830895862FF5C3F2C3CF9374
S1130120DF932BD3E9D383E090E081D181E090E0A9
S1130130BED1EC0118D3E0D383E090E078D181E024
S1130140C93ED34008F480E0DF91CF910895811532
S113015022E0920720F496958795809501C080E06F
S11301609FE090BF9CB593789CBD1EBC1BBC9FEFC9
S11301709DBD97B59B7F97BD99B79F7B99BF8FBD59
S113018088B7846088BF089598B7892F847092FFD8
S113019004C088B7846088BF81E00895F5DF8823B0
S11301A0E9F30895A1D37BD3B6D2C9D2D2D2DBD29C
S11301B0A3C3CF93DF93EC01A4D29ED3CE0137D156
S11301C0AAD2DF91CF9198C3CF93DF9300D000D010
S11301D01F92CDB7DEB7F894E5DF84E690E0E9DF5F
S11301E084E690E0B4DFCE0105963DD260E0CE0116
S11301F0059640D2CE0105966CD2182F682FCE01F9
S1130200059676D2612FCE01059669D21B8284E6CB
S113021090E09A8389831C8282E7E82E80E0F82E9E
S1130220BDDF84E690E093DF81E090E0BCD1C82E8E
S1130230D12C84E690E03BD18C0184E690E075D12A
S11302405C01CE01059645D2682FCE01059650D2A9
S113025066DF682FCE01059642D2CE01059606D2FE
S1130260811105C085E5C816D10408F0B6C0CE01D9
S11302700596FCD1882329F083E3C816D10408F439
S1130280B1C0043E85E2180710F461E005C0053BE7
S11302908DE2180748F060E0CE010596FAD160E0DF
S11302A0CE010596FFD109C0043787E2180728F468
S11302B0CE010596E8D1882391F38DE8A816B10400
S11302C010F033D205C084E6A816B10408F437D27E
S11302D0CE010596FED190917300E09172008913CE
S11302E009C0F0E0E659FF4F82818F3F81F08F5FB4
S11302F082830DC0E63010F4EF5F01C0E0E0E093CC
S11303007200F0E0E659FF4F128280937300CE0131
S11303100596B9D18823B9F0CE010596CCD18111C7
S113032012C0ECE6F0E080E090E02191820F911D94
S1130330EE16FF06D1F720916A0030916B00281762
S1130340390708F054C08B8181110EC0DAD2C82E4F
S1130350D12CDC1441F08D2DD6D28017910710F4E6
S1130360D394F7CFCD2CCC828C819B819430B0F088
S11303709A3050F09E3050F0943150F0983158F04B
S11303809E3160F411E008C011E009C010E001C022
S113039011E091E005C010E092E002C010E090E0AE
S11303A063E0D5D2890FB8D2082F112311F002953A
S11303B00F70802F817015D201FB882780F903D23A
S11303C002FB882780F9F1D103FB882780F9DFD16C
S11303D0CE01019698DE90D223CF61E0CE0105963E
S11303E049D145CF60E0CE01059644D14ACF61E0C2
S11303F0CE01059665D1A7CFEAE6F0E08EE190E064
S113040091838083108681E081878FEF8283838349
S113041084838583868387830895882339F0000045
S113042000000000000000008150F7CF0895CF9332
S1130430DF93EC01209751F08AEFEFDF8AEFEDDFD5
S11304408AEFEBDF8AEFE9DF2197F4CFDF91CF91D9
S11304500895BC98C49882E087B986E986B983B1C7
S1130460807483B9A49A0895BB98C39883E087B92C
S113047086E986B983B1807483B9A39A0895BA983A
S1130480C29881E087B986E986B983B1807483B95B
S1130490A29A0895349A369A349BFECF349A24B1A2
S11304A085B190E0982F8827820F911D0895CF92EF
S11304B0DF92EF92FF920F931F93CF93DF93EC01A0
S11304C0C73681E2D80710F0C6E6D1E2CDDFE2DF1D
S11304D000E010E0C12CD12C76010C171D0741F06F
S11304E0D9DFC80ED91EE11CF11C0F5F1F4FF5CFD9
S11304F02BEE31E040E050E0C701B60142D229E1E1
S113050030E040E050E06AD2CA01B901980140E00D
S113051050E064D2C9014096DF91CF911F910F91B1
S1130520FF90EF90DF90CF900895CF92DF92EF92FB
S1130530FF920F931F93CF93DF93EC01C23F88E3A5
S1130540D80710F0C1EFD8E384DFA4DF00E010E0A7
S1130550C12CD12C76010C171D0741F09BDFC80E6E
S1130560D91EE11CF11C0F5F1F4FF5CF20E231E0D3
S113057040E050E0C701B60104D22DE730E040E08E
S113058050E02CD2CA01B901980140E050E026D2D3
S1130590C9010896DF91CF911F910F91FF90EF90C1
S11305A0DF90CF9008957F928F929F92AF92BF92E7
S11305B0CF92DF92EF92FF920F931F93CF93DF932B
S11305C08C015DDF67DFC0E0D0E0C12CD12C760167
S11305D0C017D10739F05EDFC80ED91EE11CF11C2B
S11305E02196F6CF9E0140E050E0C701B601F6D156
S11305F049015A01690196D1782EC1E0C71520F549
S1130600DFEFDC0F8D2F90D17C018C2F8DD18C01ED
S1130610CE14DF04B8F08C159D05A0F08D2F8ED17B
S1130620D82F8C2F8BD18E189F086D2F70E0681BEC
S11306307109C40195D1B8016E197F09BBD18D2F01
S1130640861B03C0CF5FDACF8FEFDF91CF911F916D
S11306500F91FF90EF90DF90CF90BF90AF909F905D
S11306608F907F900895FC0110820895FC01808191
S113067081700895FC019081662311F0916001C09E
S11306809E7F90830895FC01808182FB882780F9F6
S11306900895FC019081662311F0946001C09B7F52
S11306A090830895FC019081662311F0986001C045
S11306B0977F90830895FC018081829581700895CD
S11306C0FC019081662311F0906101C09F7E9083AC
S11306D00895FC01808185FB882780F90895FC0139
S11306E09081662311F0906201C09F7D90830895EC
S11306F0FC019081662311F0906401C09F7B90837C
S113070008958091740090917500806290937500B3
S113071080937400089580917400909175008F7D8A
S11307209093750080937400089580917400909163
S11307307500877F9093750080937400089580916D
S11307407400909175008860909375008093740094
S1130750089580917400909175008F7B909375003B
S1130760809374000895809174009091750080685E
S11307709093750080937400089580917400909113
S113078075008F779093750080937400089520917D
S1130790740030917500882311F0316001C03E7FF0
S11307A03093750020937400089520917400309163
S11307B07500882311F0346001C03B7F30937500CD
S11307C0209374000895209174003091750088235B
S11307D011F0306101C03F7E3093750020937400A6
S11307E008952091740030917500882311F03064CD
S11307F001C03F7B3093750020937400089580916D
S11308007400909175009E7F90937500809374009E
S1130810089580917400909175009B7F909375006A
S113082080937400089580917400909175009F7E68
S11308309093750080937400089580917400909152
S113084075009F7B90937500809374000895809148
S11308507400909175009F77909375008093740055
S1130860089580917400909175009F7D9093750018
S11308708093740008958091740090917500977F1F
S11308809093750080937400089580917400909102
S113089075009D7F90937500809374000895F5DF33
S11308A0EADFDFDFD4DFC9DFBEDFB3DFA8CFC19863
S11308B008950F931F93CF93DF938C01F8DF8CE39C
S11308C0ACDDE80110E1D7FF02C0C09A01C0C098B6
S11308D0C19A115021F0EBDFCC0FDD1FF4CFDF9173
S11308E0CF911F910F910895E2DFC09887B3836081
S11308F087BB80E090E0DDCF80917400909175001B
S1130900D8CF8CE00895E82FF0E0EE0FFF1FEB5BEB
S1130910FF4F859195910895E82FF0E0E25EFF4F37
S1130920849108958EE1089590E063E070E018D01A
S1130930835A9F4FFC0185919591089590E063E05F
S113094070E00ED0815A9F4FFC01849108950024D9
S113095080FD060E660F11F08695D1F7802D08955F
S11309600024552704C0080E591F880F991F0097AB
S113097029F076956795B8F37105B9F7802D952F11
S11309800895EE27FF27AA27BB2708C0A20FB31F8D
S1130990E41FF51F220F331F441F551F969587959B
S11309A07795679598F37040A9F7009799F7BD017B
S11309B0CF010895AA1BBB1B51E107C0AA1FBB1F8F
S11309C0A617B70710F0A61BB70B881F991F5A95D7
S11309D0A9F780959095BC01CD010895A1E21A2E46
S11309E0AA1BBB1BFD010DC0AA1FBB1FEE1FFF1FCF
S11309F0A217B307E407F50720F0A21BB30BE40B1F
S1130A00F50B661F771F881F991F1A9469F7609565
S1130A107095809590959B01AC01BD01CF0108951F
S1130A20EE0FFF1F0590F491E02D0994F894FFCF89
S10D0A300000000083008E008C001B
S9030000FC
