S01000004C435F4D657465722E7372656329
S113000014C01BC01AC019C018C017C016C015C030
S113001014C013C012C011C010C00FC00EC00DC058
S11300200CC00BC00AC009C008C011241FBECFE514
S1130030D2E0DEBFCDBF42D044C0E2CF95B3977FBC
S113004095BB94B3977F94BB95B39B7F95BB94B3B7
S11300509B7F94BB20E023C095B3977F95BB94B35B
S1130060977F94BB80FF07C095B3926095BB94B310
S1130070926094BB06C095B39D7F95BB94B39D7F5E
S113008094BB95B3986095BB94B3986094BB8695E4
S113009095B3977F95BB94B3977F94BB2F5F28301C
S11300A0D8F285B3846085BB84B3846084BB85B394
S11300B0846085BB84B3846084BB089581E0BEDF23
S10900C0FDCFF894FFCF10
S9030000FC
