:1000000026C040C03FC03EC044C03CC03BC03AC018
:1000100039C038C037C036C035C034C033C032C034
:1000200031C030C02FC02EC02DC0DEF4B8E6F8D8E5
:10003000BCD606A640B040C4E4DA40C07CF0A44080
:1000400040407640BE06EA6E567CFC0EFE7E1124D1
:100050001FBECFE5D2E0DEBFCDBF10E0A0E6B0E02E
:10006000EEEDF2E002C005900D92AC36B107D9F783
:1000700020E0ACE6B0E001C01D92AF36B207E1F778
:10008000E0D02BC1BDCF8F71806487B987E886B976
:1000900008951F920F920FB60F9211248F938091A3
:1000A0006E008A3028F480916E008F5F80936E001E
:1000B00080916C008A3028F480916C008F5F80936F
:1000C0006C0080916D008A3028F480916D008F5F04
:1000D00080936D008F910F900FBE0F901F90189519
:1000E0008FEF80936E0080936C0080936D0087E0AB
:1000F00085BD89B78F7789BF89B7806489BF84B38D
:100100008F7884BB0895FC010F930FB70F93F89479
:1001100083B368238081611105C08F3F39F4108259
:1001200081E005C08A3011F48FEF808380E00F9169
:100130000FBF0F91089560E18EE690E0E4CF60E29A
:100140008CE690E0E0CF60E48DE690E0DCCF9FEBC2
:10015000980F9A3128F4E82FF0E0E751F04011C0F1
:100160009FE9980F9A3128F4E82FF0E0E753F04028
:1001700008C090ED980F9A3030F4E82FF0E0EC5E74
:10018000FF4F849108958D3211F080E0089580E44E
:10019000089585B3817F85BB84B38E6084BB089549
:1001A0000F931F93CF93DF93D62F8C010B5F1F4FBD
:1001B000C0E0F80182918F01CADFDC1301C08160C9
:1001C000AB9898E080FF02C0A99A01C0A998AB9AA9
:1001D000AB9886959150B1F7CF5FC53051F7AA9A89
:1001E000AA98DF91CF911F910F9108959B012B5FEA
:1001F0003F4FFB014191BF01FC014193CF016217C9
:100200007307B9F708950F931F93CF93DF93FB0103
:100210003496EC0120E00AE010E0241730F4CE011F
:10022000B80147D0805D80833197CE01B80141D0BD
:10023000EB012F5F253089F7DF91CF911F910F914F
:100240000895CF93DF9300D000D01F92CDB7DEB7D3
:10025000A0DF2ED045DF789482E015DF85E0E0E670
:10026000F0E0DE01119601900D928A95E1F700E031
:1002700010E065E670E0CE010196B8DF45E0BE0112
:100280006F5F7F4FC801BFDF6FEFCE01019688DF40
:1002900052DF882311F00F5F1F4F51DF882311F0C9
:1002A0000150110950DF882321F30C591F4FE1CF72
:1002B0000895AA1BBB1B51E107C0AA1FBB1FA617AD
:1002C000B70710F0A61BB70B881F991F5A95A9F7FF
:0E02D00080959095BC01CD010895F894FFCF64
:0C02DE00202020202042542D2D2D000057
:00000001FF
