:1000000026C040C03FC03EC06DC03CC03BC03AC0EF
:1000100039C038C037C036C035C034C033C032C034
:1000200031C030C02FC02EC02DC0DEF4B8E6F8D8E5
:10003000BCD606A640B040C4E4DA40C07CF0A44080
:1000400040407640BE06EA6E567CFC0EFE7E1124D1
:100050001FBECFE5D2E0DEBFCDBF10E0A0E6B0E02E
:10006000ECE3F4E002C005900D92AE37B107D9F78A
:1000700020E0AEE7B0E001C01D92A338B207E1F77F
:1000800065D1DAC1BDCF8F71806487B987E886B941
:10009000089597B1907E8F71892B87B9089534990F
:1000A000349A369A349BFECF24B185B190E0982FD4
:1000B0008827349A820F911D08950F931F93CF9331
:1000C000DF93082F10E0C0E0D0E0101729F0E7DF41
:1000D000C80FD91F1F5FF9CFCE01DF91CF911F91BC
:1000E0000F9108951F920F920FB60F9211248F93C4
:1000F000809180008A3028F4809180008F5F809307
:10010000800080917E008A3028F480917E008F5F8D
:1001100080937E0080917F008A3028F480917F0058
:100120008F5F80937F008F910F900FBE0F901F9075
:1001300018958FEF8093800080937E0080937F00DE
:1001400087E085BD89B78F7789BF89B7806489BF0C
:1001500084B38F7884BB0895FC010F930FB70F937E
:10016000F89483B368238081611105C08F3F39F40F
:10017000108281E005C08A3011F48FEF808380E027
:100180000F910FBF0F91089560E180E890E0E4CFF8
:1001900090ED980F9A3028F4E82FF0E0EC5EFF4FD6
:1001A00008C09FEB980F9A3130F4E82FF0E0E75148
:1001B000F040849108959FE9980F9A3128F4E82F30
:1001C000F0E0E753F040F5CF8F3521F08D3221F08C
:1001D00080E0089580E2089580E4089585B3817FEA
:1001E00085BB84B38E6084BB08950F931F93CF9318
:1001F000DF93D62F8C010B5F1F4FC0E0F801829177
:100200008F01C6DFDC1301C08160AB9898E080FFEE
:1002100002C0A99A01C0A998AB9AAB988695915053
:10022000B1F7CF5FC53051F7AA9AAA98DF91CF9165
:100230001F910F9108956FEFD8CF9B012B5F3F4F18
:10024000FB014191BF01FC014193CF01621773078C
:10025000B9F708950F931F93CF93DF93FB01349663
:10026000EC0120E00AE010E0241730F4CE01B801E0
:10027000A1D0805D80833197CE01B8019BD0EB0186
:100280002F5F253089F7DF91CF911F910F9108954E
:100290006817790720F49C01261B370B03C09B01CC
:1002A000281B390B4217530708F4CB0108950F930D
:1002B0001F93CF93DF93C82F882319F082E0E9DEE4
:1002C0006CD080E4FADECC2321F0909382008093FE
:1002D000810040E450E0BC01809181009091820057
:1002E000D7DF8C019C01ACEEB1E09AD020E438E37A
:1002F00040E050E073D0E90165E670E080E690E010
:100300009CDFC83E83E0D80758F4CE016AE070E075
:1003100051D0CB0142E060E670E09CDF61E00AC0B2
:10032000CE0164E670E046D0CB0142E060E670E0CA
:1003300091DF60E080E690E058DF10938200009348
:100340008100DF91CF911F910F91089547DF24D055
:1003500082E099DEEEDE789480E690E06CDFC0E02B
:1003600013DF882329F0CF5F81E0C33050F401C050
:1003700080E0C13041F028F0C23041F461E770E024
:1003800007C095DFECCF6BE670E002C067E770E076
:1003900080E690E052DFE4CF089582B38F7C82BB89
:1003A00081B38F7C81BB8FB58F708FBD8EB5887FF9
:1003B0008EBD0895AA1BBB1B51E107C0AA1FBB1F1E
:1003C000A617B70710F0A61BB70B881F991F5A95E1
:1003D000A9F780959095BC01CD010895A1E21A2E50
:1003E000AA1BBB1BFD010DC0AA1FBB1FEE1FFF1FD9
:1003F000A217B307E407F50720F0A21BB30BE40B29
:10040000F50B661F771F881F991F1A9469F760956F
:100410007095809590959B01AC01BD01CF01089529
:10042000A29FB001B39FC001A39F01D0B29F700DE6
:0C043000811D1124911D0895F894FFCF48
:10043C0048454C4C4F42545F2D2D004C2D2D75488A
:0E044C00004553522D2D004572726F72000054
:00000001FF
