:1000000026C038C037C036C035C034C033C032C057
:1000100031C030C02FC02EC02DC02CC02BC02AC074
:1000200029C028C027C026C025C0DEF4B8E6F8D80D
:10003000BCD606A640B040C4E4DA40C07CF0A44080
:1000400040407640BE06EA6E567CFC0EFE7E1124D1
:100050001FBECFE5D2E0DEBFCDBF10E0A0E6B0E02E
:10006000E4E0F2E002C005900D92AC36B107D9F79A
:100070007CD0C6C0C5CF9FEB980F9A3128F4E82FEB
:10008000F0E0E751F04011C09FE9980F9A3128F451
:10009000E82FF0E0E753F04008C090ED980F9A3059
:1000A00030F4E82FF0E0EC5EFF4F849108958D323C
:1000B00011F080E0089580E4089585B3817F85BBC9
:1000C00084B38E6084BB08950F931F93CF93DF9307
:1000D000D62F8C010B5F1F4FC0E0F80182918F017A
:1000E000CADFDC1301C08160AB9898E080FF02C0DA
:1000F000A99A01C0A998AB9AAB9886959150B1F78F
:10010000CF5FC53051F7AA9AAA98DF91CF911F917E
:100110000F9108959B012B5F3F4FFB014191BF0160
:10012000FC014193CF0162177307B9F708950F934C
:100130001F93CF93DF93FB013496EC0120E00AE09C
:1001400010E0241730F4CE01B80146D0805D8083E2
:100150003197CE01B80140D0EB012F5F253089F7F0
:10016000DF91CF911F910F910895CF93DF9300D02E
:1001700000D01F92CDB7DEB7A0DF1BD01BD085E02B
:10018000E0E6F0E0DE01119601900D928A95E1F72C
:1001900065E670E0CE010196BDDF42E0BE016F5F13
:1001A0007F4F8CEC91E3C3DF61E0CE0101968CDFE1
:1001B000EFCF089582B38F7C82BB8D988C9A8FE3AA
:1001C00096E099BD88BD8FE79EE397BD86BD82E22C
:1001D0008FBD89E18EBD0895AA1BBB1B51E107C0ED
:1001E000AA1FBB1FA617B70710F0A61BB70B881FC7
:1001F000991F5A95A9F780959095BC01CD01089556
:04020000F894FFCFA0
:0C020400202020202042542D2D2D000031
:00000001FF
