:100000000EC015C014C013C012C011C010C00FC064
:100010000EC00DC00CC00BC00AC009C008C011241E
:100020001FBECFE5D1E0DEBFCDBF2FD05CC0E8CF93
:1000300096E084E6000000000000000000000000E0
:100040008150C1F79150A9F70895CF93C82FC19857
:10005000EFDF8C2F98E087FF02C0C09A01C0C098E4
:1000600000000000C19A915029F000000000C198E2
:10007000880FF1CFDDDFC198CF910895C198C09866
:1000800087B3836087BB80E0E0CFF8DFC1E08C2FCF
:10009000DCDF8AEF16D08AEF14D08AEF12D08AEF15
:1000A00010D0CC0FA1F7F2CF882351F00000000050
:1000B0000000000000000000000000008150F4CFAC
:1000C0000895CF93C82FCC2361F088ECEDDF88EC46
:1000D000EBDF88ECE9DF88ECE7DF88ECE5DFC15097
:0A00E000F2CFCF910895F894FFCFFE
:00000001FF
