S015000043757272656E7453656E736F722E73726563B2
S11300000EC015C014C013C012C011C010C00FC060
S11300100EC00DC00CC00BC00AC009C008C011241A
S11300201FBECFE5D1E0DEBFCDBF5AD0EAC0E8CFD6
S113003087B3877E87BB88B3877E88BB87E087B911
S113004086E986B983B1807483B984B3886184BB3B
S11300500895349A369A349BFECF349A24B185B1EC
S113006090E0982F8827820F911D0895CF92DF92F8
S1130070EF92FF920F931F93CF93DF938C01093F6D
S113008087EA180710F008EF17EAD2DFE2DFE80189
S1130090C12CD12C7601209739F0DBDFC80ED91E94
S11300A0E11CF11C2197F7CF21E630E040E050E05D
S11300B0C701B6016BD028E230E040E050E07FD0C9
S11300C0CA01B901980140E050E079D0C901DF913B
S11300D0CF911F910F91FF90EF90DF90CF900895F3
S11300E084E690E0C3DF30D08AE00ED0F9CF8823D5
S11300F051F00000000000000000000000000000BB
S113010000008150F4CF0895CF93C82FCC2361F021
S113011088ECEDDF88ECEBDF88ECE9DF88ECE7DFE7
S113012088ECE5DFC150F2CFCF910895CF93C82F6B
S1130130CC2341F0C09A81E0DADFC09881E0D7DFB8
S1130140C150F6CFCF9108950F931F93CF93DF93B0
S11301508C01B89A84E6EADFE80110E1D7FF02C017
S1130160C09A01C0C09888ECC2DF83E0DFDFCC0F07
S1130170DD1F115029F0183089F789E1D7DFEECF60
S1130180C098DF91CF911F910F910895EE27FF271B
S1130190AA27BB2708C0A20FB31FE41FF51F220F15
S11301A0331F441F551F969587957795679598F348
S11301B07040A9F7009799F7BD01CF010895A1E216
S11301C01A2EAA1BBB1BFD010DC0AA1FBB1FEE1FCD
S11301D0FF1FA217B307E407F50720F0A21BB30B18
S11301E0E40BF50B661F771F881F991F1A9469F794
S11301F060957095809590959B01AC01BD01CF01F0
S10902000895F894FFCFFD
S9030000FC
