:100000000C9446000C9465000C9465000C946500FB
:100010000C9465000C9465000C9465000C946500CC
:100020000C9465000C9465000C9465000C946500BC
:100030000C9465000C9465000C9465000C946500AC
:100040000C9465000C9465000C9467000C9465009A
:100050000C9465000C9465000C9465000C9465008C
:100060000C9465000C9465000C9465000C9465007C
:100070000C9465000C9465000C94B4000C9465001D
:100080000C9465000C9465000C94650011241FBE4F
:10009000CFEFD0E1DEBFCDBF11E0A0E0B1E0E6E2FE
:1000A000FCE100E00BBF02C007900D92AA37B10738
:1000B000D9F71EE0AAE7B1E001C01D92AE3BB1073F
:1000C000E1F70E9470080C94120E0C9400001F922D
:1000D0000F920FB60F9211242F933F938F939F93FC
:1000E000EF93FF93CF93DF93CDB7DEB72197DEBFBA
:1000F000CDBF2FB78CB1898380917A018F3F11F1E9
:10010000E0917C01F0917D018091760190917701E1
:10011000E80FF91F8981808380917C0190917D0196
:100120008F57924048F480917C0190917D01019617
:1001300090937D0180937C0189818B3319F48FEF3B
:1001400080937A012FBF2196F894DEBFCDBFDF9157
:10015000CF91FF91EF919F918F913F912F910F90B0
:100160000FBE0F901F9018951F920F920FB60F920F
:1001700011242F933F938F939F93EF93FF93CF93EC
:10018000DF93CDB7DEB72197DEBFCDBF2FB780910C
:100190009C00898380917B018F3F11F1E0917E016A
:1001A000F0917F018091780190917901E80FF91F1A
:1001B0008981808380917E0190917F018F57924049
:1001C00048F480917E0190917F01019690937F0188
:1001D00080937E0189818B3319F48FEF80937B01AB
:1001E0002FBF2196F894DEBFCDBFDF91CF91FF9155
:1001F000EF919F918F913F912F910F900FBE0F9094
:100200001F901895CF93DF93CDB7DEB721970FB628
:10021000F894DEBF0FBECDBFA82F8FB78983F894A7
:10022000A23058F4BB27FD01EE0FFF1FE458FE4F2C
:1002300011821082A658BE4F1C9289818FBF2196D1
:100240000FB6F894DEBF0FBECDBFDF91CF910895FA
:10025000882331F4872F99278093900069B90895F6
:10026000813031F4872F992780939800609399000B
:100270000895882349F4199A119A10981BB88EE0B2
:10028000809395001AB80895813071F482B38C6020
:1002900082BB81B38B7F886081BB10929B008EE014
:1002A00080939D0010929A0008950895CF93DF9354
:1002B000CDB7DEB721970FB6F894DEBF0FBECDBF26
:1002C0001982882349F48CB189838AB18F768AB9DF
:1002D0008AB180698AB90FC0813069F480919C002D
:1002E000898380919A008F7680939A0080919A00FA
:1002F000806980939A0021960FB6F894DEBF0FBEF6
:10030000CDBFDF91CF910895882321F48AB18F76F4
:100310008AB90895813029F480919A008F7680936C
:100320009A000895882329F48AB1877B8AB9539A61
:100330000895813051F480919A00877B80939A00D0
:1003400080919A00886080939A000895882321F410
:100350008AB1877B8AB90895813029F480919A0007
:10036000877B80939A000895882321F45D9BFECFBC
:100370006CB90895813031F480919B0085FFFCCFEA
:1003800060939C000895FF920F931F93CF93DF9388
:10039000F82E8B01C0E0D0E003C08F2D0E94B40185
:1003A000F801EC0FF11D608121966623B1F7DF9112
:1003B000CF911F910F91FF9008950F931F93182FC6
:1003C000062F62956F706A3010F0695C01C0605D45
:1003D000812F0E94B401602F6F706A3010F0695C49
:1003E00001C0605D812F0E94B4011F910F9108959B
:1003F000FF920F931F93F82E8B01672F77270E9490
:10040000DD01602F8F2D0E94DD011F910F91FF9064
:100410000895DF92EF92FF920F931F93D82E7A01E7
:100420008B01B801882799278D2D0E94F801B7010B
:100430008D2D0E94F8011F910F91FF90EF90DF909A
:10044000089508959FEF909361008093620008954E
:10045000CF93DF93CDB7DEB721970FB6F894DEBF09
:100460000FBECDBF1092610080B189838981992729
:1004700021960FB6F894DEBF0FBECDBFDF91CF91AE
:100480000895DB9ADB980895CF93DF93CDB7DEB75D
:1004900021970FB6F894DEBF0FBECDBFFC01DB98ED
:1004A000DC9ADE9ADB9ADB98DD9A9FEF90936100ED
:1004B00081E280936200DB9ADB98DD98DC9ADE9A19
:1004C0009093610010926200DB9ADB98DE98909323
:1004D000610081E380936200DB9ADB98DC98DE9810
:1004E0001092610080B18983898180E090E0DB9A7D
:1004F000DB98019680329105D1F740E050E0DC9A1C
:10050000DE9ADB9ADB98DC9ADE9A8FEF80936100AB
:1005100040936200DB9ADB98DC98DE9810926100D1
:1005200080B189838981DB9ADB98DB9ADB98109212
:10053000610080B189838981282F3327DB9ADB987A
:1005400044305105A1F14530510570F44130510559
:10055000F9F041305105A8F042305105E1F0433047
:10056000510509F045C020C04630510561F14630C3
:10057000510530F14730510579F148305105C1F549
:100580002EC020FD03C081E0808338C0108236C0B9
:100590003283218333C0322F222781819281820FBF
:1005A000931F928381832AC03483238327C0322FF1
:1005B000222783819481820F931F948383831EC09B
:1005C000368325831BC0322F222785819681820F97
:1005D000931F9683858312C0308727830FC0322FE5
:1005E000222787819085820F931F9087878306C07B
:1005F0004F5F5F4F4A30510520F481CF4F5F5F4F0F
:100600007ECFDC9ADE9ADB9ADB98DB9ADB98219628
:100610000FB6F894DEBF0FBECDBFDF91CF91089526
:10062000DB98DD9ADC9A813051F0813018F082300D
:1006300081F40AC08FEF8093610088E00DC08FEFD6
:100640008093610080E108C08FEF8093610088E1B2
:1006500003C08FEF8093610080936200DB9ADB9888
:10066000DD98DE9A8FEF8093610060936200DB9AE1
:10067000DB98DE988093610040936200DF9ADB9AFA
:10068000DB98DF98DB9ADB98DC980895DB98DC9A9E
:10069000DE9ADB9ADB98DD9AA1E6B0E04FEF4C934F
:1006A000E2E6F0E020E22083DB9ADB98DD98DC9A3A
:1006B000DE9A292F33274C932083DB9ADB98DE9A2E
:1006C0004C938083DB9ADB98DE984C936083DB9AB3
:1006D000DB980895DB98DC9ADE9ADB9ADB98DD9A4A
:1006E0008FEF8093610080E280936200DB9ADB9859
:1006F000DD98DC9ADE9ADF9ADB9ADB98DF98DB9A4A
:10070000DB980895CF93DF93CDB7DEB721970FB66F
:10071000F894DEBF0FBECDBFDB98DC9ADE9ADB9A81
:10072000DB98DD9AA1E6B0E09FEF9C93E2E6F0E073
:1007300080E28083DB9ADB98DD98DC9ADE9A9C93DA
:100740009083DB9ADB989C939083DB9ADB98DC9810
:10075000DE981C9280B189838981DB9ADB981C9298
:1007600080B189838981992721960FB6F894DEBFDD
:100770000FBECDBFDF91CF910895CF93DF93CDB75B
:10078000DEB721970FB6F894DEBF0FBECDBFDB9862
:10079000DC9ADE9ADB9ADB98DD9AA1E6B0E04FEFB7
:1007A0004C93E2E6F0E020E22083DB9ADB98DD98D0
:1007B000DC9ADE9A292F33274C932083DB9ADB982F
:1007C0004C938083DB9ADB98DC98DE981C9280B196
:1007D00089838981DB9ADB98DB9ADB98DB9ADB984B
:1007E0001C9280B189838981992721960FB6F8944C
:1007F000DEBF0FBECDBFDF91CF9108952F923F9204
:100800004F925F926F927F928F929F92AF92BF9220
:10081000CF92DF92EF92FF920F931F93CF93DF93CC
:10082000CDB7DEB729970FB6F894DEBF0FBECDBFA8
:100830008D831F830E835901CC24DD24A40EB51EA5
:10084000C61ED71E0894A108B108C108D1087A01B4
:100850008B011C821B82AFC0EFEF2E2EE1E03E2EFB
:100860002E203F203701480179E0969487947794B1
:1008700067947A95D1F7D601C50169E0B695A79539
:10088000979587956A95D1F786159705A805B905B7
:1008900029F02FEF31E03A83298304C0C50191701C
:1008A0009A8389832114310429F4A981BA81AF5F25
:1008B000B14021F160E08FEF93E00E944603662D86
:1008C0008EEF93E00E944603C801B70151E196956F
:1008D0008795779567955A95D1F76F712D812295F8
:1008E000220F220F207C622B8DEF93E00E944603A3
:1008F0000E946A030E9482038823E1F74E805F8092
:100900002B813C81420E531E398628860CC0D201B1
:100910006D912D01888599850E944603E885F985AA
:100920003196F987E8872885398589819A818217E8
:10093000930768F761E08FEF93E00E944603662D0E
:100940008EEF93E00E944603C801B70141E19695FE
:100950008795779567954A95D1F76F712D81229587
:10096000220F220F207C622B8DEF93E00E94460322
:100970000E946A030E9482038823E1F7A981BA8159
:10098000A219B309BA83A983EB81FC813196AE0F1A
:10099000BF1FBC83AB8380E09EEFAFEFBFEFE822C9
:1009A000F9220A231B2380E092E0A0E0B0E0E80EE9
:1009B000F91E0A1F1B1FAE14BF04C006D10608F0A3
:1009C0004BCF29960FB6F894DEBF0FBECDBFDF9197
:1009D000CF911F910F91FF90EF90DF90CF90BF903C
:1009E000AF909F908F907F906F905F904F903F90CF
:1009F0002F9008952F923F924F925F926F927F9225
:100A00008F929F92AF92BF92CF92DF92EF92FF921E
:100A10000F931F93CF93DF93CDB7DEB725970FB614
:100A2000F894DEBF0FBECDBF8B831D830C835901AD
:100A3000CC24DD24A40EB51EC61ED71E0894A10822
:100A4000B108C108D1087A018B012224332476C071
:100A5000C70191709A8389833701480139E09694E0
:100A60008794779467943A95D1F7D601C50129E028
:100A7000B695A795979587952A95D1F786159705E9
:100A8000A805B90529F0BFEF4B2EB1E05B2E06C0DB
:100A9000AFEF4A2EA1E05A2E4A205B2060E08FEF94
:100AA00093E00E944603662D8EEF93E00E9446037A
:100AB000C801B701F1E19695879577956795FA9505
:100AC000D1F76F712B812295220F220F207C622B90
:100AD0008DEF93E00E9446030E946A030E94820306
:100AE0008823E1F78C809D80820C931C69807A803A
:100AF00009C0C3010E94BD03D4018D934D01089428
:100B0000611C711C46145704A0F7E981FA814E1A42
:100B10005F0A0894211C311C240C351C80E09EEFD8
:100B2000AFEFBFEFE822F9220A231B2380E092E017
:100B3000A0E0B0E0E80EF91E0A1F1B1FAE14BF04B0
:100B4000C006D10608F084CF25960FB6F894DEBF14
:100B50000FBECDBFDF91CF911F910F91FF90EF900E
:100B6000DF90CF90BF90AF909F908F907F906F90CD
:100B70005F904F903F902F9008950F931F93CF93C6
:100B8000DF93DC01DB98DC9ADD9A8FEF80936100C4
:100B900084E080936200DB9ADB98DD98FD0160E0E1
:100BA00070E05FEFDD98DB98DE9A462F509361008E
:100BB00060936200DB9ADB98DE9880819181959545
:100BC0008795959587955093610080936200DB9A95
:100BD000DB98DE9A4F5F5093610040936200415072
:100BE000DB9ADB98DE98892F990F990B509361005F
:100BF00080936200DB9ADB9820853185C901837080
:100C00009070892B11F02C5F3F4FDE9A485F509314
:100C1000610040936200DB9ADB98DE983695279559
:100C2000369527955093610020936200DB9ADB98FC
:100C3000DE9A4F5F5093610040936200DB9ADB982D
:100C4000DE98832F99275093610080936200DB9A8E
:100C5000DB98DE9A495F5093610040936200DB9A13
:100C6000DB98DE98808991895093610080936200BF
:100C7000DB9ADB98DE9A4F5F5093610040936200ED
:100C8000DB9ADB98DE98892F990F990B50936100BE
:100C900080936200DB9ADB98DE9A495F5093610093
:100CA00040936200DB9ADB98DE98808D918D5093A3
:100CB000610080936200DB9ADB98DE9A4F5F50936D
:100CC000610040936200DB9ADB98DE98892F990FD0
:100CD000990B5093610080936200DB9ADB986E5F02
:100CE0007F4F32966830710509F05CCFDE9ADF9A4B
:100CF000DB9ADB98DF98DB9ADB98FD01909660E049
:100D000070E01FEFDB98DD9A6130710579F061309A
:100D1000710538F06230710569F063307105A1F436
:100D20000FC0109361001092620012C01093610016
:100D300081E003C01093610082E08093620008C0EC
:100D40001093610083E0F9CF10936100109362006B
:100D5000DB9ADB98DD984085518580819181EA019D
:100D6000C81BD90B0C919C012C7F002321F4821B02
:100D7000930B9C0103C0421B530B9A01DE9A4FEF69
:100D80004093610010926200DB9ADB98DE984093FA
:100D9000610020936200DB9ADB98DE9A4093610049
:100DA00081E080936200DB9ADB98DE98832F99279D
:100DB00087704093610080936200DB9ADB98DE9A33
:100DC0004093610082E080936200DB9ADB98DE98BA
:100DD00040936100C0936200DB9ADB98DE9A4093F7
:100DE000610083E080936200DB9ADB98DE988D2FB0
:100DF00099274093610080936200DB9ADB98208DF5
:100E0000318D80899189281B390BDE9A40936100CE
:100E100084E080936200DB9ADB98DE984093610067
:100E200020936200DB9ADB98DE9A4093610085E0B4
:100E300080936200DB9ADB98DE9880E0232F3327D3
:100E4000232B09F081E04093610080936200DB9ADC
:100E5000DB98902FED018C8181119260DE9A409396
:100E6000610086E080936200DB9ADB98DE98409315
:100E7000610090936200DB9ADB98DE9ADF9ADB9A3E
:100E8000DB98DF98DB9ADB986F5F7F4F3296119685
:100E90006430710509F036CFDC98DF91CF911F9156
:100EA0000F91089580E090E00F920F900F920F90B5
:100EB0000F920F900F920F900F920F900F920F9032
:100EC0000F920F900F920F900F920F900F920F9022
:100ED0000F920F900F920F900F920F900F920F9012
:100EE0000F920F900F920F900F920F900F920F9002
:100EF0000F920F900F920F900F920F900F920F90F2
:100F00000F920F900F920F90019627E4853B920766
:100F100009F0CACF0895982F20E030E0FB0106C009
:100F20008081891741F02F5F3F4F31962417350795
:100F3000B9F72FEF3FEFC901089520E030E0DB0162
:100F4000FC010BC090818C91981719F08FEF90E005
:100F500008952F5F3F4F319611962417350791F76B
:100F600080E090E00895FC0120E030E00AC090812C
:100F7000892F81568A3110F4905290832F5F3F4F12
:100F800031962617370799F7089520E030E0DB0106
:100F9000FC0104C081918D932F5F3F4F24173507CB
:100FA000C9F70895DC0140E020E030E022C054E0C1
:100FB000220F331F5A95E1F7FD01E40FF11DE08187
:100FC0008E2F80538A3020F42E0F311D2053304055
:100FD0008E2F8156863020F42E0F311D275530403C
:100FE0008E2F8154863020F42E0F311D2753304030
:100FF0004F5F4617E1F6C901089520E030E0FC019B
:1010000011C09081892F80538A3048F081518630F9
:1010100030F09156963018F08FEF90E008952F5FE2
:101020003F4F31962617370761F780E090E008952B
:10103000CF93DF93CDB7DEB721970FB6F894DEBF1D
:101040000FBECDBF9C01E199FECF8091680080FD6D
:10105000FCCF8FB78983F894E199FECF8091680027
:1010600080FDFCCF832F99278FBB2EBB6DBBE29AEF
:10107000E19A89818FBF21960FB6F894DEBF0FBE2B
:10108000CDBFDF91CF910895CF93DF93CDB7DEB77A
:1010900021970FB6F894DEBF0FBECDBF9C01E1993A
:1010A000FECF8091680080FDFCCF8FB78983F894D4
:1010B000E199FECF8091680080FDFCCF832F9927B6
:1010C0008FBB2EBBE09A8DB399819FBF9927219644
:1010D0000FB6F894DEBF0FBECDBFDF91CF9108955C
:1010E0008F929F92AF92BF92CF92DF92EF92FF9238
:1010F0000F931F93CF93DF93CDB7DEB729970FB62A
:10110000F894DEBF0FBECDBF0E945207DB9A80E08D
:101110000E94390163E070E080E00E94280180E0D5
:101120000E94920180E00E94560181E00E943901F4
:1011300063E070E081E00E94280181E00E9492015A
:1011400081E00E9456011BBA8AB3886F8ABB81E096
:1011500090E00E9444088F3F09F057C065E077E0B7
:10116000DB0190962FEF33E08FEF92E0FB011182CD
:10117000108231872087118A108A918F808F1C926C
:10118000FD0114826E5F7F4F1196F7E06D307F078F
:1011900069F780E090E025E831E0A5E8B2E065E895
:1011A00073E0F90181939F018D93FB018193BF014E
:1011B0000196F1E080309F07A1F702E010E0A5E082
:1011C000EA2EA7E0FA2EF70161917F01C8010E9483
:1011D00018080F5F1F4F0A321105A9F70AE210E045
:1011E000F5E8EF2EF1E0FF2EF70161917F01C801D4
:1011F0000E9418080F5F1F4FF3E00A321F07A1F784
:1012000060E081E090E00E94180802E010E0E5E074
:10121000EE2EE7E0FE2EC8010E944408F7018193FC
:101220007F010F5F1F4F0A321105A9F785E097E094
:101230000E94BD050AE210E075E8E72E71E0F72E86
:10124000C8010E944408F70181937F010F5F1F4F7F
:10125000F3E00A321F0709F49CC4F2CFF701419171
:101260007F01602F8C2D0E9410030F5F1F4FF1E054
:1012700000301F0799F70894C11CD11C23E0C21647
:10128000D10409F088C460E071E080E00E94C301ED
:1012900061E171E081E00E94C30178948FEF809357
:1012A000820180917A018F3F11F410928201809126
:1012B0007B018F3F29F481E080938201E1E004C04B
:1012C000E0918201EF3F51F310928001FF27EE0F72
:1012D000FF1FDF01A458BE4F6D917C91EA58FE4F6D
:1012E000808191810E94B30710922E0710922D07E2
:1012F000E0918201FF27EE0FFF1FDF01A458BE4FD0
:101300004D915C91EA58FE4F608171818BE50E949E
:101310008B079C019093300780932F0701978E5F76
:101320009F4F48F560912D0770912E076F5F7F4F9B
:10133000620F731F7093390C6093380CE091820137
:10134000FF27EE0FFF1FDF01A458BE4F4D915C91A8
:10135000461B570BEA58FE4F80819181680F791F19
:101360008DE50E948B079093370780933607EFEF48
:101370008F3F9E0721F48FEF80938001FBC3409144
:10138000380C5091390C4E5F5F4FBC01640F751FD4
:101390004250504070933D0C60933C0C8091820110
:1013A000A82FBB27AA0FBB1FFD01E458FE4F808169
:1013B0009181861B970B0197909335078093340793
:1013C00080918001882309F0D5C3AA58BE4F2D9182
:1013D0003C9180912D0790912E07820F931F90933F
:1013E000320780933107420F531F5093840140937B
:1013F0008301260F371F30933B0C20933A0C1FEFCD
:10140000109380011092810144E050E060E271E0AD
:101410000E949D078823C1F41093810180913607B3
:1014200090913707892B09F006C18091340790917C
:101430003507892B09F0FFC065E271E080918201D8
:101440000E94C3011092800180918101882309F0DC
:10145000DDC044E050E069E271E080913107909195
:1014600032070E949D07882309F097C010938101DD
:101470008091360790913707892B09F0C7C080917A
:101480003407909135078035910509F0BFC060E5BC
:1014900070E080913A0C90913B0C0E94FD078823EC
:1014A00009F07BC000E010E025E0E22E27E0F22EFC
:1014B00090E2C92ED12CCE0CDF1C80913A0C909179
:1014C0003B0C64E0800F911F0E94D207F7019183CB
:1014D000808380913A0C90913B0C800F911F64E0C7
:1014E00004960E94D207F7019187808780913A0C79
:1014F00090913B0C800F911F64E008960E94D207E8
:10150000F701918B808B80913A0C90913B0C800F6E
:10151000911F64E00C960E94D207F701918F808F93
:1015200080913A0C90913B0C800F911F62E04096A5
:101530000E94D207892B19F4F601108203C081E0C2
:10154000F601808380913A0C90913B0C800F911FA3
:1015500062E042960E94D207892B19F4F6011482A8
:1015600003C081E0F60184830C5E1F4F82E090E0AF
:10157000E80EF91E0894C11CD11C0035110509F0B4
:101580009CCF85E097E00E94BD051092800165E246
:1015900071E0809182010E94C301809181018823C2
:1015A00009F049C046E050E06EE271E080913107F9
:1015B000909132070E949D07882341F58FEF809319
:1015C00081018091360790913707892BA1F5809191
:1015D000340790913507892B71F502E010E085E022
:1015E000E82E87E0F82EF70161917F01C8010E9483
:1015F00018080F5F1F4F0A321105A9F710928001DA
:1016000065E271E0809182010E94C30180918101B5
:10161000882339F544E050E065E371E080913107BB
:10162000909132070E949D07882329F48FEF8093C1
:10163000810110E017C080918101882309F08AC0E0
:1016400044E050E06AE371E0809131079091320705
:101650000E949D07882329F48FEF8093810111E078
:1016600019C01FEF80918101882389F444E050E084
:101670006FE371E080913107909132070E949D07DE
:10168000882329F48FEF8093810112E003C0133087
:1016900008F060C0609136077091370761157105D9
:1016A00009F458C06530710508F054C080913407C2
:1016B00090913507009709F44DC080FD4BC0809193
:1016C0008301909184010E94FD07882309F042C0A4
:1016D0006091360780918301909184010E94D20726
:1016E000209134073091350736952795280F391FFB
:1016F0002150314078F5812F9927182F00270B575B
:101700001E4FCC24DD24EE24FF2413C080913A0C1C
:1017100090913B0C62E08E0D9F1D0E94D207F80154
:1017200081938F010894C11CD11C82E090E0E80EE7
:10173000F91E809134079091350796958795C816C4
:10174000D90620F31092800165E271E08091820158
:101750000E94C30180918101882309F0ACC144E05B
:1017600050E064E471E080913107909132070E946B
:101770009D07882371F58091360790913707892B53
:1017800041F58091340790913507892B09F40CC2FB
:1017900020C0F70141917F01602F8C2D0E94100322
:1017A0000F5F1F4FF1E000301F0799F70894C11C2D
:1017B000D11C23E0C216D10409F0F8C110928001B7
:1017C0008FEF8093810165E271E0809182010E9438
:1017D000C30180918101882309F0E8C045E050E011
:1017E00069E471E080913107909132070E949D0772
:1017F000882309F05BC08FEF8093810180913607C9
:1018000090913707892B09F0D1C0809134079091CE
:101810003507892B09F0CAC0609185018AE290E002
:101820000E941808E1E0EE2EF12C7AE0A72EB12CF0
:101830008824992466E8C62E61E0D62EF6016081E0
:10184000C7018A960E941808C50160E073E00E94F3
:10185000FE0D8B016815790581F06FE471E08091D0
:1018600082010E94C301602F809182010E94DD01EC
:101870006BE3809182010E94B4018AE090E0A80E9F
:10188000B91E0894E11CF11C0894C11CD11C90E005
:10189000E91693E0F90611F04801D0CF10928001CB
:1018A00065E271E0809182010E94C3018091810113
:1018B000882309F000C144E050E065E571E08091C3
:1018C0003107909132070E949D07882309F06EC06E
:1018D0008FEF809381016091360770913707611512
:1018E000710509F4E8C0809134079091350700979D
:1018F00009F4E1C080FDDFC08091830190918401F3
:101900000E94FD07882309F051C06091340770914F
:10191000350780913A0C90913B0C0E94FD0788237B
:1019200009F044C060913607809183019091840151
:101930000E94D2079C0180509540C0F580913407E9
:101940009091350796958795820F931F815095400A
:1019500068F548E3C42E47E0D42EC20ED31EEE2411
:10196000FF2400E010E011C080913A0C90913B0CF4
:1019700062E0800F911F0E94D207F60181936F01F0
:101980000894E11CF11C0E5F1F4F80913407909169
:10199000350796958795E816F90630F31092800181
:1019A00065E271E0809182010E94C3018091810112
:1019B000882309F080C044E050E06AE571E080913E
:1019C0003107909132070E949D07882309F073C068
:1019D0008FEF809381016091360770913707611511
:1019E000710509F468C08091340790913507049718
:1019F00009F061C080918301909184010E94FD07EC
:101A0000882309F058C060913407709135078091A0
:101A10003A0C90913B0C0E94FD07882309F04BC0C3
:101A20006091360780918301909184010E94D207D2
:101A30006C0162E080913A0C90913B0C0E94D207BD
:101A40008C0180913A0C90913B0C62E002960E94CE
:101A5000D2075C010330110570F5049760F520E0B2
:101A6000C21624E0D20638F5EE24FF24BCE0CC0CEC
:101A7000DD1CEE1CFF1CBA95D1F7B8018827992709
:101A800025E535E040E050E00E94DF0DC60ED71E90
:101A9000E81EF91E08E317E020E035E0B701A601D3
:101AA0008A2D0E94FE031092800165E271E0809110
:101AB00082010E94C30144E050E06FE571E0809133
:101AC0003107909132070E949D07882309F052C088
:101AD0008FEF809381018091360790913707892B92
:101AE00009F048C08091340790913507892B09F09F
:101AF00041C08E010F5F1F4FC8010E944402C80100
:101B00000E9444026FE571E0809182010E94C3014E
:101B100064E671E0809182010E94C3016A817B8149
:101B2000809182010E94F8016C817D818091820107
:101B30000E94F80168857985809182010E94F801F0
:101B40006E817F81809182010E94F80189818823C2
:101B500019F068E671E002C06BE671E080918201E5
:101B60000E94C3016BE3809182010E94B401109234
:101B700080010AC0809180018F3F31F46EE671E0F0
:101B8000809182010E94C301809182010E94020122
:101B900085CBCC24DD24FC2CEE2485E891E0E80EF6
:101BA000F91E00E010E05ACBCC24DD24FC2CEE24FE
:101BB000E5E8F1E0EE0EFF1E00E010E0EACD629FE6
:101BC000D001739FF001829FE00DF11D649FE00D35
:101BD000F11D929FF00D839FF00D749FF00D659F96
:101BE000F00D9927729FB00DE11DF91F639FB00D95
:101BF000E11DF91FBD01CF0111240895AA1BBB1BD4
:101C000051E107C0AA1FBB1FA617B70710F0A61BFC
:101C1000B70B881F991F5A95A9F780959095BC011D
:101C2000CD010895FFCF5052455645445F5253327F
:101C3000333220212121005052455645445F5553EF
:101C400042202121210050494E47004F4B3B005874
:101C50005953540058594545535400525F47430067
:101C6000475F474300425F474300475F5354004785
:101C70004545535400434F4D504C004C434F520088
:101C80004C5752540047545354005B5D3D00303074
:101C9000004646004552524F523B003B85043E0CE5
:101CA000FFFFFFFFFFFFFFFFFFFFFFFFFFFFFFFF44
:101CB000FFFFFFFFFFFFFFFFFFFFFFFFFFFFFFFF34
:101CC000FFFFFFFFFFFFFFFFFFFFFFFFFFFFFFFF24
:101CD000FFFFFFFFFFFFFFFFFFFFFFFFFFFFFFFF14
:020000040001F9
:100000000C9446000C9465000C9465000C946500FB
:100010000C9465000C9465000C9465000C946500CC
:100020000C9465000C9465000C9465000C946500BC
:100030000C9465000C9465000C9465000C946500AC
:100040000C9465000C9465000C9467000C9465009A
:100050000C9465000C9465000C9465000C9465008C
:100060000C9465000C9465000C9465000C9465007C
:100070000C9465000C9465000C94B4000C9465001D
:100080000C9465000C9465000C94650011241FBE4F
:10009000CFEFD0E1DEBFCDBF11E0A0E0B1E0E6E2FE
:1000A000FCE100E00BBF02C007900D92AA37B10738
:1000B000D9F71EE0AAE7B1E001C01D92AE3BB1073F
:1000C000E1F70E9470080C94120E0C9400001F922D
:1000D0000F920FB60F9211242F933F938F939F93FC
:1000E000EF93FF93CF93DF93CDB7DEB72197DEBFBA
:1000F000CDBF2FB78CB1898380917A018F3F11F1E9
:10010000E0917C01F0917D018091760190917701E1
:10011000E80FF91F8981808380917C0190917D0196
:100120008F57924048F480917C0190917D01019617
:1001300090937D0180937C0189818B3319F48FEF3B
:1001400080937A012FBF2196F894DEBFCDBFDF9157
:10015000CF91FF91EF919F918F913F912F910F90B0
:100160000FBE0F901F9018951F920F920FB60F920F
:1001700011242F933F938F939F93EF93FF93CF93EC
:10018000DF93CDB7DEB72197DEBFCDBF2FB780910C
:100190009C00898380917B018F3F11F1E0917E016A
:1001A000F0917F018091780190917901E80FF91F1A
:1001B0008981808380917E0190917F018F57924049
:1001C00048F480917E0190917F01019690937F0188
:1001D00080937E0189818B3319F48FEF80937B01AB
:1001E0002FBF2196F894DEBFCDBFDF91CF91FF9155
:1001F000EF919F918F913F912F910F900FBE0F9094
:100200001F901895CF93DF93CDB7DEB721970FB628
:10021000F894DEBF0FBECDBFA82F8FB78983F894A7
:10022000A23058F4BB27FD01EE0FFF1FE458FE4F2C
:1002300011821082A658BE4F1C9289818FBF2196D1
:100240000FB6F894DEBF0FBECDBFDF91CF910895FA
:10025000882331F4872F99278093900069B90895F6
:10026000813031F4872F992780939800609399000B
:100270000895882349F4199A119A10981BB88EE0B2
:10028000809395001AB80895813071F482B38C6020
:1002900082BB81B38B7F886081BB10929B008EE014
:1002A00080939D0010929A0008950895CF93DF9354
:1002B000CDB7DEB721970FB6F894DEBF0FBECDBF26
:1002C0001982882349F48CB189838AB18F768AB9DF
:1002D0008AB180698AB90FC0813069F480919C002D
:1002E000898380919A008F7680939A0080919A00FA
:1002F000806980939A0021960FB6F894DEBF0FBEF6
:10030000CDBFDF91CF910895882321F48AB18F76F4
:100310008AB90895813029F480919A008F7680936C
:100320009A000895882329F48AB1877B8AB9539A61
:100330000895813051F480919A00877B80939A00D0
:1003400080919A00886080939A000895882321F410
:100350008AB1877B8AB90895813029F480919A0007
:10036000877B80939A000895882321F45D9BFECFBC
:100370006CB90895813031F480919B0085FFFCCFEA
:1003800060939C000895FF920F931F93CF93DF9388
:10039000F82E8B01C0E0D0E003C08F2D0E94B40185
:1003A000F801EC0FF11D608121966623B1F7DF9112
:1003B000CF911F910F91FF9008950F931F93182FC6
:1003C000062F62956F706A3010F0695C01C0605D45
:1003D000812F0E94B401602F6F706A3010F0695C49
:1003E00001C0605D812F0E94B4011F910F9108959B
:1003F000FF920F931F93F82E8B01672F77270E9490
:10040000DD01602F8F2D0E94DD011F910F91FF9064
:100410000895DF92EF92FF920F931F93D82E7A01E7
:100420008B01B801882799278D2D0E94F801B7010B
:100430008D2D0E94F8011F910F91FF90EF90DF909A
:10044000089508959FEF909361008093620008954E
:10045000CF93DF93CDB7DEB721970FB6F894DEBF09
:100460000FBECDBF1092610080B189838981992729
:1004700021960FB6F894DEBF0FBECDBFDF91CF91AE
:100480000895DB9ADB980895CF93DF93CDB7DEB75D
:1004900021970FB6F894DEBF0FBECDBFFC01DB98ED
:1004A000DC9ADE9ADB9ADB98DD9A9FEF90936100ED
:1004B00081E280936200DB9ADB98DD98DC9ADE9A19
:1004C0009093610010926200DB9ADB98DE98909323
:1004D000610081E380936200DB9ADB98DC98DE9810
:1004E0001092610080B18983898180E090E0DB9A7D
:1004F000DB98019680329105D1F740E050E0DC9A1C
:10050000DE9ADB9ADB98DC9ADE9A8FEF80936100AB
:1005100040936200DB9ADB98DC98DE9810926100D1
:1005200080B189838981DB9ADB98DB9ADB98109212
:10053000610080B189838981282F3327DB9ADB987A
:1005400044305105A1F14530510570F44130510559
:10055000F9F041305105A8F042305105E1F0433047
:10056000510509F045C020C04630510561F14630C3
:10057000510530F14730510579F148305105C1F549
:100580002EC020FD03C081E0808338C0108236C0B9
:100590003283218333C0322F222781819281820FBF
:1005A000931F928381832AC03483238327C0322FF1
:1005B000222783819481820F931F948383831EC09B
:1005C000368325831BC0322F222785819681820F97
:1005D000931F9683858312C0308727830FC0322FE5
:1005E000222787819085820F931F9087878306C07B
:1005F0004F5F5F4F4A30510520F481CF4F5F5F4F0F
:100600007ECFDC9ADE9ADB9ADB98DB9ADB98219628
:100610000FB6F894DEBF0FBECDBFDF91CF91089526
:10062000DB98DD9ADC9A813051F0813018F082300D
:1006300081F40AC08FEF8093610088E00DC08FEFD6
:100640008093610080E108C08FEF8093610088E1B2
:1006500003C08FEF8093610080936200DB9ADB9888
:10066000DD98DE9A8FEF8093610060936200DB9AE1
:10067000DB98DE988093610040936200DF9ADB9AFA
:10068000DB98DF98DB9ADB98DC980895DB98DC9A9E
:10069000DE9ADB9ADB98DD9AA1E6B0E04FEF4C934F
:1006A000E2E6F0E020E22083DB9ADB98DD98DC9A3A
:1006B000DE9A292F33274C932083DB9ADB98DE9A2E
:1006C0004C938083DB9ADB98DE984C936083DB9AB3
:1006D000DB980895DB98DC9ADE9ADB9ADB98DD9A4A
:1006E0008FEF8093610080E280936200DB9ADB9859
:1006F000DD98DC9ADE9ADF9ADB9ADB98DF98DB9A4A
:10070000DB980895CF93DF93CDB7DEB721970FB66F
:10071000F894DEBF0FBECDBFDB98DC9ADE9ADB9A81
:10072000DB98DD9AA1E6B0E09FEF9C93E2E6F0E073
:1007300080E28083DB9ADB98DD98DC9ADE9A9C93DA
:100740009083DB9ADB989C939083DB9ADB98DC9810
:10075000DE981C9280B189838981DB9ADB981C9298
:1007600080B189838981992721960FB6F894DEBFDD
:100770000FBECDBFDF91CF910895CF93DF93CDB75B
:10078000DEB721970FB6F894DEBF0FBECDBFDB9862
:10079000DC9ADE9ADB9ADB98DD9AA1E6B0E04FEFB7
:1007A0004C93E2E6F0E020E22083DB9ADB98DD98D0
:1007B000DC9ADE9A292F33274C932083DB9ADB982F
:1007C0004C938083DB9ADB98DC98DE981C9280B196
:1007D00089838981DB9ADB98DB9ADB98DB9ADB984B
:1007E0001C9280B189838981992721960FB6F8944C
:1007F000DEBF0FBECDBFDF91CF9108952F923F9204
:100800004F925F926F927F928F929F92AF92BF9220
:10081000CF92DF92EF92FF920F931F93CF93DF93CC
:10082000CDB7DEB729970FB6F894DEBF0FBECDBFA8
:100830008D831F830E835901CC24DD24A40EB51EA5
:10084000C61ED71E0894A108B108C108D1087A01B4
:100850008B011C821B82AFC0EFEF2E2EE1E03E2EFB
:100860002E203F203701480179E0969487947794B1
:1008700067947A95D1F7D601C50169E0B695A79539
:10088000979587956A95D1F786159705A805B905B7
:1008900029F02FEF31E03A83298304C0C50191701C
:1008A0009A8389832114310429F4A981BA81AF5F25
:1008B000B14021F160E08FEF93E00E944603662D86
:1008C0008EEF93E00E944603C801B70151E196956F
:1008D0008795779567955A95D1F76F712D812295F8
:1008E000220F220F207C622B8DEF93E00E944603A3
:1008F0000E946A030E9482038823E1F74E805F8092
:100900002B813C81420E531E398628860CC0D201B1
:100910006D912D01888599850E944603E885F985AA
:100920003196F987E8872885398589819A818217E8
:10093000930768F761E08FEF93E00E944603662D0E
:100940008EEF93E00E944603C801B70141E19695FE
:100950008795779567954A95D1F76F712D81229587
:10096000220F220F207C622B8DEF93E00E94460322
:100970000E946A030E9482038823E1F7A981BA8159
:10098000A219B309BA83A983EB81FC813196AE0F1A
:10099000BF1FBC83AB8380E09EEFAFEFBFEFE822C9
:1009A000F9220A231B2380E092E0A0E0B0E0E80EE9
:1009B000F91E0A1F1B1FAE14BF04C006D10608F0A3
:1009C0004BCF29960FB6F894DEBF0FBECDBFDF9197
:1009D000CF911F910F91FF90EF90DF90CF90BF903C
:1009E000AF909F908F907F906F905F904F903F90CF
:1009F0002F9008952F923F924F925F926F927F9225
:100A00008F929F92AF92BF92CF92DF92EF92FF921E
:100A10000F931F93CF93DF93CDB7DEB725970FB614
:100A2000F894DEBF0FBECDBF8B831D830C835901AD
:100A3000CC24DD24A40EB51EC61ED71E0894A10822
:100A4000B108C108D1087A018B012224332476C071
:100A5000C70191709A8389833701480139E09694E0
:100A60008794779467943A95D1F7D601C50129E028
:100A7000B695A795979587952A95D1F786159705E9
:100A8000A805B90529F0BFEF4B2EB1E05B2E06C0DB
:100A9000AFEF4A2EA1E05A2E4A205B2060E08FEF94
:100AA00093E00E944603662D8EEF93E00E9446037A
:100AB000C801B701F1E19695879577956795FA9505
:100AC000D1F76F712B812295220F220F207C622B90
:100AD0008DEF93E00E9446030E946A030E94820306
:100AE0008823E1F78C809D80820C931C69807A803A
:100AF00009C0C3010E94BD03D4018D934D01089428
:100B0000611C711C46145704A0F7E981FA814E1A42
:100B10005F0A0894211C311C240C351C80E09EEFD8
:100B2000AFEFBFEFE822F9220A231B2380E092E017
:100B3000A0E0B0E0E80EF91E0A1F1B1FAE14BF04B0
:100B4000C006D10608F084CF25960FB6F894DEBF14
:100B50000FBECDBFDF91CF911F910F91FF90EF900E
:100B6000DF90CF90BF90AF909F908F907F906F90CD
:100B70005F904F903F902F9008950F931F93CF93C6
:100B8000DF93DC01DB98DC9ADD9A8FEF80936100C4
:100B900084E080936200DB9ADB98DD98FD0160E0E1
:100BA00070E05FEFDD98DB98DE9A462F509361008E
:100BB00060936200DB9ADB98DE9880819181959545
:100BC0008795959587955093610080936200DB9A95
:100BD000DB98DE9A4F5F5093610040936200415072
:100BE000DB9ADB98DE98892F990F990B509361005F
:100BF00080936200DB9ADB9820853185C901837080
:100C00009070892B11F02C5F3F4FDE9A485F509314
:100C1000610040936200DB9ADB98DE983695279559
:100C2000369527955093610020936200DB9ADB98FC
:100C3000DE9A4F5F5093610040936200DB9ADB982D
:100C4000DE98832F99275093610080936200DB9A8E
:100C5000DB98DE9A495F5093610040936200DB9A13
:100C6000DB98DE98808991895093610080936200BF
:100C7000DB9ADB98DE9A4F5F5093610040936200ED
:100C8000DB9ADB98DE98892F990F990B50936100BE
:100C900080936200DB9ADB98DE9A495F5093610093
:100CA00040936200DB9ADB98DE98808D918D5093A3
:100CB000610080936200DB9ADB98DE9A4F5F50936D
:100CC000610040936200DB9ADB98DE98892F990FD0
:100CD000990B5093610080936200DB9ADB986E5F02
:100CE0007F4F32966830710509F05CCFDE9ADF9A4B
:100CF000DB9ADB98DF98DB9ADB98FD01909660E049
:100D000070E01FEFDB98DD9A6130710579F061309A
:100D1000710538F06230710569F063307105A1F436
:100D20000FC0109361001092620012C01093610016
:100D300081E003C01093610082E08093620008C0EC
:100D40001093610083E0F9CF10936100109362006B
:100D5000DB9ADB98DD984085518580819181EA019D
:100D6000C81BD90B0C919C012C7F002321F4821B02
:100D7000930B9C0103C0421B530B9A01DE9A4FEF69
:100D80004093610010926200DB9ADB98DE984093FA
:100D9000610020936200DB9ADB98DE9A4093610049
:100DA00081E080936200DB9ADB98DE98832F99279D
:100DB00087704093610080936200DB9ADB98DE9A33
:100DC0004093610082E080936200DB9ADB98DE98BA
:100DD00040936100C0936200DB9ADB98DE9A4093F7
:100DE000610083E080936200DB9ADB98DE988D2FB0
:100DF00099274093610080936200DB9ADB98208DF5
:100E0000318D80899189281B390BDE9A40936100CE
:100E100084E080936200DB9ADB98DE984093610067
:100E200020936200DB9ADB98DE9A4093610085E0B4
:100E300080936200DB9ADB98DE9880E0232F3327D3
:100E4000232B09F081E04093610080936200DB9ADC
:100E5000DB98902FED018C8181119260DE9A409396
:100E6000610086E080936200DB9ADB98DE98409315
:100E7000610090936200DB9ADB98DE9ADF9ADB9A3E
:100E8000DB98DF98DB9ADB986F5F7F4F3296119685
:100E90006430710509F036CFDC98DF91CF911F9156
:100EA0000F91089580E090E00F920F900F920F90B5
:100EB0000F920F900F920F900F920F900F920F9032
:100EC0000F920F900F920F900F920F900F920F9022
:100ED0000F920F900F920F900F920F900F920F9012
:100EE0000F920F900F920F900F920F900F920F9002
:100EF0000F920F900F920F900F920F900F920F90F2
:100F00000F920F900F920F90019627E4853B920766
:100F100009F0CACF0895982F20E030E0FB0106C009
:100F20008081891741F02F5F3F4F31962417350795
:100F3000B9F72FEF3FEFC901089520E030E0DB0162
:100F4000FC010BC090818C91981719F08FEF90E005
:100F500008952F5F3F4F319611962417350791F76B
:100F600080E090E00895FC0120E030E00AC090812C
:100F7000892F81568A3110F4905290832F5F3F4F12
:100F800031962617370799F7089520E030E0DB0106
:100F9000FC0104C081918D932F5F3F4F24173507CB
:100FA000C9F70895DC0140E020E030E022C054E0C1
:100FB000220F331F5A95E1F7FD01E40FF11DE08187
:100FC0008E2F80538A3020F42E0F311D2053304055
:100FD0008E2F8156863020F42E0F311D275530403C
:100FE0008E2F8154863020F42E0F311D2753304030
:100FF0004F5F4617E1F6C901089520E030E0FC019B
:1010000011C09081892F80538A3048F081518630F9
:1010100030F09156963018F08FEF90E008952F5FE2
:101020003F4F31962617370761F780E090E008952B
:10103000CF93DF93CDB7DEB721970FB6F894DEBF1D
:101040000FBECDBF9C01E199FECF8091680080FD6D
:10105000FCCF8FB78983F894E199FECF8091680027
:1010600080FDFCCF832F99278FBB2EBB6DBBE29AEF
:10107000E19A89818FBF21960FB6F894DEBF0FBE2B
:10108000CDBFDF91CF910895CF93DF93CDB7DEB77A
:1010900021970FB6F894DEBF0FBECDBF9C01E1993A
:1010A000FECF8091680080FDFCCF8FB78983F894D4
:1010B000E199FECF8091680080FDFCCF832F9927B6
:1010C0008FBB2EBBE09A8DB399819FBF9927219644
:1010D0000FB6F894DEBF0FBECDBFDF91CF9108955C
:1010E0008F929F92AF92BF92CF92DF92EF92FF9238
:1010F0000F931F93CF93DF93CDB7DEB729970FB62A
:10110000F894DEBF0FBECDBF0E945207DB9A80E08D
:101110000E94390163E070E080E00E94280180E0D5
:101120000E94920180E00E94560181E00E943901F4
:1011300063E070E081E00E94280181E00E9492015A
:1011400081E00E9456011BBA8AB3886F8ABB81E096
:1011500090E00E9444088F3F09F057C065E077E0B7
:10116000DB0190962FEF33E08FEF92E0FB011182CD
:10117000108231872087118A108A918F808F1C926C
:10118000FD0114826E5F7F4F1196F7E06D307F078F
:1011900069F780E090E025E831E0A5E8B2E065E895
:1011A00073E0F90181939F018D93FB018193BF014E
:1011B0000196F1E080309F07A1F702E010E0A5E082
:1011C000EA2EA7E0FA2EF70161917F01C8010E9483
:1011D00018080F5F1F4F0A321105A9F70AE210E045
:1011E000F5E8EF2EF1E0FF2EF70161917F01C801D4
:1011F0000E9418080F5F1F4FF3E00A321F07A1F784
:1012000060E081E090E00E94180802E010E0E5E074
:10121000EE2EE7E0FE2EC8010E944408F7018193FC
:101220007F010F5F1F4F0A321105A9F785E097E094
:101230000E94BD050AE210E075E8E72E71E0F72E86
:10124000C8010E944408F70181937F010F5F1F4F7F
:10125000F3E00A321F0709F49CC4F2CFF701419171
:101260007F01602F8C2D0E9410030F5F1F4FF1E054
:1012700000301F0799F70894C11CD11C23E0C21647
:10128000D10409F088C460E071E080E00E94C301ED
:1012900061E171E081E00E94C30178948FEF809357
:1012A000820180917A018F3F11F410928201809126
:1012B0007B018F3F29F481E080938201E1E004C04B
:1012C000E0918201EF3F51F310928001FF27EE0F72
:1012D000FF1FDF01A458BE4F6D917C91EA58FE4F6D
:1012E000808191810E94B30710922E0710922D07E2
:1012F000E0918201FF27EE0FFF1FDF01A458BE4FD0
:101300004D915C91EA58FE4F608171818BE50E949E
:101310008B079C019093300780932F0701978E5F76
:101320009F4F48F560912D0770912E076F5F7F4F9B
:10133000620F731F7093390C6093380CE091820137
:10134000FF27EE0FFF1FDF01A458BE4F4D915C91A8
:10135000461B570BEA58FE4F80819181680F791F19
:101360008DE50E948B079093370780933607EFEF48
:101370008F3F9E0721F48FEF80938001FBC3409144
:10138000380C5091390C4E5F5F4FBC01640F751FD4
:101390004250504070933D0C60933C0C8091820110
:1013A000A82FBB27AA0FBB1FFD01E458FE4F808169
:1013B0009181861B970B0197909335078093340793
:1013C00080918001882309F0D5C3AA58BE4F2D9182
:1013D0003C9180912D0790912E07820F931F90933F
:1013E000320780933107420F531F5093840140937B
:1013F0008301260F371F30933B0C20933A0C1FEFCD
:10140000109380011092810144E050E060E271E0AD
:101410000E949D078823C1F41093810180913607B3
:1014200090913707892B09F006C18091340790917C
:101430003507892B09F0FFC065E271E080918201D8
:101440000E94C3011092800180918101882309F0DC
:10145000DDC044E050E069E271E080913107909195
:1014600032070E949D07882309F097C010938101DD
:101470008091360790913707892B09F0C7C080917A
:101480003407909135078035910509F0BFC060E5BC
:1014900070E080913A0C90913B0C0E94FD078823EC
:1014A00009F07BC000E010E025E0E22E27E0F22EFC
:1014B00090E2C92ED12CCE0CDF1C80913A0C909179
:1014C0003B0C64E0800F911F0E94D207F7019183CB
:1014D000808380913A0C90913B0C800F911F64E0C7
:1014E00004960E94D207F7019187808780913A0C79
:1014F00090913B0C800F911F64E008960E94D207E8
:10150000F701918B808B80913A0C90913B0C800F6E
:10151000911F64E00C960E94D207F701918F808F93
:1015200080913A0C90913B0C800F911F62E04096A5
:101530000E94D207892B19F4F601108203C081E0C2
:10154000F601808380913A0C90913B0C800F911FA3
:1015500062E042960E94D207892B19F4F6011482A8
:1015600003C081E0F60184830C5E1F4F82E090E0AF
:10157000E80EF91E0894C11CD11C0035110509F0B4
:101580009CCF85E097E00E94BD051092800165E246
:1015900071E0809182010E94C301809181018823C2
:1015A00009F049C046E050E06EE271E080913107F9
:1015B000909132070E949D07882341F58FEF809319
:1015C00081018091360790913707892BA1F5809191
:1015D000340790913507892B71F502E010E085E022
:1015E000E82E87E0F82EF70161917F01C8010E9483
:1015F00018080F5F1F4F0A321105A9F710928001DA
:1016000065E271E0809182010E94C30180918101B5
:10161000882339F544E050E065E371E080913107BB
:10162000909132070E949D07882329F48FEF8093C1
:10163000810110E017C080918101882309F08AC0E0
:1016400044E050E06AE371E0809131079091320705
:101650000E949D07882329F48FEF8093810111E078
:1016600019C01FEF80918101882389F444E050E084
:101670006FE371E080913107909132070E949D07DE
:10168000882329F48FEF8093810112E003C0133087
:1016900008F060C0609136077091370761157105D9
:1016A00009F458C06530710508F054C080913407C2
:1016B00090913507009709F44DC080FD4BC0809193
:1016C0008301909184010E94FD07882309F042C0A4
:1016D0006091360780918301909184010E94D20726
:1016E000209134073091350736952795280F391FFB
:1016F0002150314078F5812F9927182F00270B575B
:101700001E4FCC24DD24EE24FF2413C080913A0C1C
:1017100090913B0C62E08E0D9F1D0E94D207F80154
:1017200081938F010894C11CD11C82E090E0E80EE7
:10173000F91E809134079091350796958795C816C4
:10174000D90620F31092800165E271E08091820158
:101750000E94C30180918101882309F0ACC144E05B
:1017600050E064E471E080913107909132070E946B
:101770009D07882371F58091360790913707892B53
:1017800041F58091340790913507892B09F40CC2FB
:1017900020C0F70141917F01602F8C2D0E94100322
:1017A0000F5F1F4FF1E000301F0799F70894C11C2D
:1017B000D11C23E0C216D10409F0F8C110928001B7
:1017C0008FEF8093810165E271E0809182010E9438
:1017D000C30180918101882309F0E8C045E050E011
:1017E00069E471E080913107909132070E949D0772
:1017F000882309F05BC08FEF8093810180913607C9
:1018000090913707892B09F0D1C0809134079091CE
:101810003507892B09F0CAC0609185018AE290E002
:101820000E941808E1E0EE2EF12C7AE0A72EB12CF0
:101830008824992466E8C62E61E0D62EF6016081E0
:10184000C7018A960E941808C50160E073E00E94F3
:10185000FE0D8B016815790581F06FE471E08091D0
:1018600082010E94C301602F809182010E94DD01EC
:101870006BE3809182010E94B4018AE090E0A80E9F
:10188000B91E0894E11CF11C0894C11CD11C90E005
:10189000E91693E0F90611F04801D0CF10928001CB
:1018A00065E271E0809182010E94C3018091810113
:1018B000882309F000C144E050E065E571E08091C3
:1018C0003107909132070E949D07882309F06EC06E
:1018D0008FEF809381016091360770913707611512
:1018E000710509F4E8C0809134079091350700979D
:1018F00009F4E1C080FDDFC08091830190918401F3
:101900000E94FD07882309F051C06091340770914F
:10191000350780913A0C90913B0C0E94FD0788237B
:1019200009F044C060913607809183019091840151
:101930000E94D2079C0180509540C0F580913407E9
:101940009091350796958795820F931F815095400A
:1019500068F548E3C42E47E0D42EC20ED31EEE2411
:10196000FF2400E010E011C080913A0C90913B0CF4
:1019700062E0800F911F0E94D207F60181936F01F0
:101980000894E11CF11C0E5F1F4F80913407909169
:10199000350796958795E816F90630F31092800181
:1019A00065E271E0809182010E94C3018091810112
:1019B000882309F080C044E050E06AE571E080913E
:1019C0003107909132070E949D07882309F073C068
:1019D0008FEF809381016091360770913707611511
:1019E000710509F468C08091340790913507049718
:1019F00009F061C080918301909184010E94FD07EC
:101A0000882309F058C060913407709135078091A0
:101A10003A0C90913B0C0E94FD07882309F04BC0C3
:101A20006091360780918301909184010E94D207D2
:101A30006C0162E080913A0C90913B0C0E94D207BD
:101A40008C0180913A0C90913B0C62E002960E94CE
:101A5000D2075C010330110570F5049760F520E0B2
:101A6000C21624E0D20638F5EE24FF24BCE0CC0CEC
:101A7000DD1CEE1CFF1CBA95D1F7B8018827992709
:101A800025E535E040E050E00E94DF0DC60ED71E90
:101A9000E81EF91E08E317E020E035E0B701A601D3
:101AA0008A2D0E94FE031092800165E271E0809110
:101AB00082010E94C30144E050E06FE571E0809133
:101AC0003107909132070E949D07882309F052C088
:101AD0008FEF809381018091360790913707892B92
:101AE00009F048C08091340790913507892B09F09F
:101AF00041C08E010F5F1F4FC8010E944402C80100
:101B00000E9444026FE571E0809182010E94C3014E
:101B100064E671E0809182010E94C3016A817B8149
:101B2000809182010E94F8016C817D818091820107
:101B30000E94F80168857985809182010E94F801F0
:101B40006E817F81809182010E94F80189818823C2
:101B500019F068E671E002C06BE671E080918201E5
:101B60000E94C3016BE3809182010E94B401109234
:101B700080010AC0809180018F3F31F46EE671E0F0
:101B8000809182010E94C301809182010E94020122
:101B900085CBCC24DD24FC2CEE2485E891E0E80EF6
:101BA000F91E00E010E05ACBCC24DD24FC2CEE24FE
:101BB000E5E8F1E0EE0EFF1E00E010E0EACD629FE6
:101BC000D001739FF001829FE00DF11D649FE00D35
:101BD000F11D929FF00D839FF00D749FF00D659F96
:101BE000F00D9927729FB00DE11DF91F639FB00D95
:101BF000E11DF91FBD01CF0111240895AA1BBB1BD4
:101C000051E107C0AA1FBB1FA617B70710F0A61BFC
:101C1000B70B881F991F5A95A9F780959095BC011D
:101C2000CD010895FFCF5052455645445F5253327F
:101C3000333220212121005052455645445F5553EF
:101C400042202121210050494E47004F4B3B005874
:101C50005953540058594545535400525F47430067
:101C6000475F474300425F474300475F5354004785
:101C70004545535400434F4D504C004C434F520088
:101C80004C5752540047545354005B5D3D00303074
:101C9000004646004552524F523B003B85043E0CE5
:00000001FF
