:100000000EC028C027C026C025C024C023C022C0DF
:1000100021C020C01FC01EC01DC01CC01BC0112499
:100020001FBECFE5D1E0DEBFCDBF10E0A0E6B0E05F
:10003000E0E3F3E002C005900D92AE36B107D9F7C8
:1000400020E0AEE6B0E001C01D92AF36B207E1F7A6
:100050001FD16CC1D5CF882339F00000000000000B
:10006000000000008150F7CF0895CF93DF93EC019B
:10007000209751F08AEFEFDF8AEFEDDF8AEFEBDFB9
:100080008AEFE9DF2197F4CFDF91CF910895BB98F4
:10009000C39883E087B986E986B983B1807483B950
:1000A000A29A0895349A369A349BFECF349A24B19A
:1000B00085B190E0982F8827820F911D0895CF92E7
:1000C000DF92EF92FF920F931F93CF93DF93EC0198
:1000D000C73681E2D80710F0C6E6D1E2D8DFE2DF0A
:1000E00000E010E0C12CD12C76010C171D0741F067
:1000F000D9DFC80ED91EE11CF11C0F5F1F4FF5CFD1
:100100002BEE31E040E050E0C701B601D4D029E148
:1001100030E040E050E0E8D0CA01B901980140E089
:1001200050E0E2D0C9014096DF91CF911F910F912D
:10013000FF90EF90DF90CF9008950F931F93109151
:100140006E000000000009E0000000000A95E1F7E1
:100150000CE00F930F911A95B9F71F910F91089525
:1001600091B7981791F0981710F49F5F01C09150C4
:1001700091BF9FEF000000000000000000000000A1
:10018000000000009150B1F7EBCF0895CF93C82F36
:1001900083EAE6DFC0936E00C09AB89ACF910895C3
:1001A000CF93DF93C82FC098C8DFD8E0C0FF02C04C
:1001B000C09A01C0C098C1DFC695D150B9F7C09AA6
:1001C000BCDFBBDFDF91CF910895CF93DF93EC01CC
:1001D0008991882311F0E4DFFBCFDF91CF9108955F
:1001E0008F929F92AF92BF920F931F93CF93DF9303
:1001F000CDB7DEB72A970FB6F894DEBF0FBECDBFDE
:1002000019E02AE0822E912CA12CB12C61157105E8
:100210008105910581F0A501940166D0A62FB90151
:10022000CA01193059F0A11109C061157105810584
:10023000910521F404C0A0E0193009F4A05DE1E0CB
:10024000F0E0EC0FFD1FE10FF11DA083112311F071
:100250001150DCCF8E010F5F1F4F5E018BE0A80EA7
:10026000B11CF80181918F0181119ADFA016B106AE
:10027000C1F72A960FB6F894DEBF0FBECDBFDF914F
:10028000CF911F910F91BF90AF909F908F90089545
:1002900082E07CDF80E690E098DF81E090E00FDF95
:1002A000BC0180E090E09CDF8AE690E08EDF84EF86
:1002B00091E0DBDEEFCFEE27FF27AA27BB2708C0A0
:1002C000A20FB31FE41FF51F220F331F441F551F3A
:1002D000969587957795679598F37040A9F700975D
:1002E00099F7BD01CF010895A1E21A2EAA1BBB1BED
:1002F000FD010DC0AA1FBB1FEE1FFF1FA217B307F2
:10030000E407F50720F0A21BB30BE40BF50B661F07
:10031000771F881F991F1A9469F7609570958095CB
:1003200090959B01AC01BD01CF010895F894FFCFDA
:0E033000566F6C746167653A20000D0A00007C
:00000001FF
