:100000000EC028C027C026C025C024C023C022C0DF
:1000100021C020C01FC01EC01DC01CC01BC0112499
:100020001FBECFE5D1E0DEBFCDBF10E0A0E6B0E05F
:10003000E0EAF1E002C005900D92A838B107D9F7C7
:1000400020E0A8E8B0E001C01D92A938B207E1F7AE
:100050008BD0A4C0D5CF882339F000000000000069
:10006000000000008150F7CF0895CF93DF93EC019B
:10007000209751F08AEFEFDF8AEFEDDF8AEFEBDFB9
:100080008AEFE9DF2197F4CFDF91CF9108950F93A5
:100090001F93109188000000000009E0000000009C
:1000A0000A95E1F70CE00F930F911A95B9F71F919C
:1000B0000F91089591B7981791F0981710F49F5FDA
:1000C00001C0915091BF9FEF0000000000000000B0
:1000D00000000000000000009150B1F7EBCF089540
:1000E000CF93C82F83EAE6DFC0938800C09AB89AFE
:1000F000CF910895CF93DF93C82FC098C8DFD8E081
:10010000C0FF02C0C09A01C0C098C1DFC695D150DF
:10011000B9F7C09ABCDFBBDFDF91CF910895CF93D1
:10012000DF93EC018991882311F0E4DFFBCFDF91AD
:10013000CF910895CF93DF93282F3AE0632F22D0F9
:10014000D92F20D0C92F822F64E61CD0882311F02C
:10015000805DD0DFCC2319F080E38C0FCBDF80E310
:100160008D0FDF91CF91C6CF82E0BADF80E690E0BD
:10017000D6DF8BE7DFDF85E890E0D1DF84EF91E029
:1001800074DFF4CF991B79E004C0991F961708F02B
:10019000961B881F7A95C9F780950895F894FFCF2C
:1001A00048656C6C6F2C20776861742773206172CE
:1001B0006520796F7520646F696E67207468657259
:0801C000653F2020000D0A003C
:00000001FF
