S015000043757272656E7453656E736F722E73726563B2
S11300000EC01DC01CC01BC01AC019C018C017C028
S113001016C015C014C013C012C011C010C01124E2
S11300201FBECFE5D1E0DEBFCDBF20E0A0E6B0E04B
S113003001C01D92A236B207E1F7E4D015C1E0CFAA
S1130040882339F000000000000000000000815007
S1130050F7CF0895CF93DF93EC01209751F08AEF07
S1130060EFDF8AEFEDDF8AEFEBDF8AEFE9DF21973D
S1130070F4CFDF91CF910895809160009091610059
S11300809160909361008093600008958091600076
S1130090909161009E7F9093610080936000089529
S11300A080916000909161009460909361008093CE
S11300B06000089580916000909161009B7F90930F
S11300C061008093600008958091600090916100C8
S11300D09061909361008093600008958091600026
S11300E0909161009F7E90936100809360000895D9
S11300F0809160009091610090649093610080937E
S11301006000089580916000909161009F7B9093BE
S11301106100809360000895809160009091610077
S113012090689093610080936000089580916000CE
S1130130909161009F77909361008093600008958F
S1130140809160009091610090629093610080932F
S11301506000089580916000909161009F7D90936C
S11301606100809360000895809160009091610027
S1130170986090936100809360000895809160007E
S113018090916100977F909361008093600008953F
S113019080916000909161009260909361008093DF
S11301A06000089580916000909161009D7F90931C
S11301B06100809360000895CF93DF93D82FC92FF7
S11301C0C1988CE33DDF8D2F9C2F20E197FF02C067
S11301D0C09A01C0C098C19A215021F0C198880FDB
S11301E0991FF4CFDF91CF910895C198C09887B338
S11301F0836087BB80E090E0DFCF809160009091C6
S11302006100DACFF2DFCEDF73DFF7DF84EF91E056
S113021021DF78DF59DFF1DF84EF91E01BDF5EDF60
S11302203FDFEBDF84EF91E015DF44DF25DFE5DF1F
S113023084EF91E00FDF2ADF6FDFDFDF84EF91E0EF
S113024009DF74DF7DDFD9DF84EF91E003DF82DF34
S11302508BDFD3DF84EF91E0FDDE90DF99DFCDDF2C
S10F026084EF91E0F7DECFCFF894FFCFDD
S9030000FC
