S012000055534254696E794953502E7372656398
S113000039C077C050C04FC04EC04DC04CC04BC06B
S11300104AC049C048C047C046C045C044C043C0A8
S113002042C041C040C000CDD914F13C28E5A16CC8
S113003078B5509D894409021200010100803209FB
S113004004000000FF00000012010101FF0000088D
S113005081179F0C07010002000104030904160321
S1130060550053004200740069006E007900490095
S11300705300500011241FBECFEDCDBF10E0A0E609
S1130080B0E0E4EAF7E002C005900D92A236B107B1
S1130090D9F720E0A2E6B0E001C01D92AE39B20764
S11300A0E1F791D27DC3ACCFDC019FEF8FEF46E245
S11300B0F0E018C02D918227E82FEF70E40F3591FE
S11300C0E82FE295892F932F3170E327EF709295F3
S11300D0392F9F70307E8327E40F35919327317039
S11300E0932783276A9532F7809590958D939D93F6
S11300F008950F931F932F93DF93CF930FB70F930D
S11301008299FECF82990BC0829909C0829907C057
S1130110829905C0829903C000E40ABFACC0C091B3
S11301208600DD27C957DF4F0BE01CE024E0829BEB
S1130130E9CF3F934F936F9360B330E803C060B34C
S1130140432B499344276C702627215020B32C70ED
S1130150A9F137953C3FA0F56227615060B36C70FC
S113016037953C3F98F526272150379520B32C70BE
S11301703C3F90F56227615037953C3F60B36C700B
S1130180A0F52627215037953C3FC8F520B32C70A5
S11301906227615037953C3FB0F50A9560B37AF019
S11301A06C702627215037953C3F88F520B32C707E
S11301B06227615037953C3F10F22DC031C052C0C8
S11301C0612720B32C703F774160C6CF3F774260F0
S11301D060B36C702127C7CF3F774460612720B399
S11301E02C70622761503795C8CF3F77486021272C
S11301F0316060B36C70262721503795C6CF3F77A6
S113020040616127C1CF3F7740622127C4CF3F7748
S113021040646127C9CF3F774068212700C08FCF52
S113022030E43ABF0B500195C01BD040288121FD1A
S11302302DC019811F7740919D00141799F4293618
S113024091F4009177000023F1F04091850044235C
S1130250D1F4409377004091830040939D00C8E718
S1130260D0E02BC02227209362006F914F913F91E1
S11302700AB706FD45CF0F910FBFCF91DF912F91A4
S11302801F910F911895C0E6D0E016C0217059F364
S113029020916200222339F340918500442399F789
S11302A00093850020938400009186004BE0401B5E
S11302B040938600C1E6D0E001E022B3237F2860AA
S11302C011B31C6022BB11BB1CE030E830FF2127B6
S11302D022BB379547954C3FC0F530FF2127379512
S11302E022BB47954C3FA8F530FF212737950000E6
S11302F022BB47954C3F78F530FF21273795000006
S113030022BB47954C3F48F530FF2127699122BB1A
S1130310379547954C3F18F530FF2127379522BB79
S113032047954C3F00F530FF21273795479522BB71
S11303304C3FD8F430FF21273795362F479522BB01
S11303404C3FA8F40A9512F614C02127442722BB77
S1130350C2CF2127C5CF2127CBCF2127D1CF21271A
S1130360442722BBD7CF2127DACF2127DFCF21276C
S1130370E5CF237F22BB6F914F913F9100E40ABFE9
S1130380DF91CF9111B3022F286022BB137FDFBF0F
S1130390DF912F91000011BB02BB1F910F911895A3
S11303A001C008950F930FB70F931F932F933F939B
S11303B0EF93FF93CF93DF93D0E0C82FF0E0E62FC5
S11303C0042FC798199128E017FFC59817FDC59AFF
S11303D0110F0000B6991160C79A0000C7982A95BA
S11303E099F711930A9571F7DF91CF91FF91EF91EE
S11303F03F912F911F910F910FBF0F9108958091FD
S11304006E0090916F009C012F5F3F4F30936F00FF
S113041020936E0020916B0027FF02C0880F991F64
S113042080FD286020936700292F2695209368007B
S1130430969587958093690044E063E670E087E6CB
S113044090E0AECFFC018181882309F458C0853047
S113045069F48281809372008481882311F081E1A0
S113046001C081E088BB81EB87BB47C0863021F4A3
S113047080E187BB88BB41C0873039F444E0BF01C9
S1130480CF0102968DDF84E008958E3039F441E087
S1130490BF01CF01029684DF81E00895883039F4EA
S11304A082818093710083818093700026C09FEFC6
S11304B0980F943010F18D3001F1248135813093FF
S11304C06F0020936E00893011F480E203C08B30FA
S11304D029F480EA80936B008FEF089522813381A1
S11304E030936D0020936C008A3011F480E403C0D3
S11304F08C3019F480EC80936B0080E0089588E0E0
S11305000895EF92FF921F93CF93DF93162FEC0180
S11305107C01E60EF11CCE15DF0529F070DF809119
S113052066008993F8CF812FDF91CF911F91FF90BF
S1130530EF900895DF92EF92FF920F931F93CF9362
S1130540DF93EC017C01E60EF11C30E6D32ECE15D0
S1130550DF0589F1899180936A0051DF80916700FA
S11305608D258093670000E010E080916C009091ED
S11305706D000817190758F744E063E670E087E652
S113058090E00EDF8091660090916A00891308C0A4
S113059090917100891721F0909170008913D7CF41
S11305A08091720090E025E0880F991F2A95E1F769
S11305B0080F191FDACFDF91CF911F910F91FF9090
S11305C0EF90DF90089580E187BB88BB02D00CD008
S11305D0FECF85B7836085BF8BB780648BBF8D9A50
S11305E0949A8C9A789408951F93CF93DF93609193
S11305F08500662309F46FC080918600CCE0D0E0CA
S1130600C81BD109C957DF4F81E0809376008091E0
S113061084008D3209F051C01E818F8181111FEF3A
S11306208881807669F58981811104C018821982D4
S113063082E03BC0853029F48A8180938300959AB7
S113064033C0863099F482E0809376008B818130C8
S1130650F9F0823009F1833039F58A81882301F178
S1130660823011F586E1CEE5D0E01FC0883019F460
S113067081E088831AC08A30B9F4188281E015C0F9
S1130680CE01E0DE8F3F89F483E0809376000FC0D3
S113069082E1C8E4D0E009C082E1C6E3D0E005C04D
S11306A084E0CAE5D0E001C080E0811708F0812F22
S11306B0D0937400C093730005C0635011F0CE0151
S11306C039DF80E08093750083EC8093780010928A
S11306D077001092850080917700811153C090912A
S11306E07600992309F44EC02091780088E8822787
S11306F080937800C0917500C93018F4CC23B1F10F
S113070001C0C8E0933031F46C2F89E790E0F9DE42
S1130710C82F27C08091730020917400913091F408
S113072049E750E0E82FF22F31969F01215031091B
S1130730D9019C91DA019D93AD019E2F981B9C17C2
S113074098F30BC0A9E7B0E0E82FF22F949131960B
S11307509D939E2F981B9C17C8F3F0937400E0930D
S11307607300809175008C1B809375006C2F89E752
S113077090E09ADC83E08C0F80937700C83010F40B
S1130780109276008AE0839907C08150E1F71092B5
S1130790830010929D009598DF91CF911F91089549
S10707A0F894FFCFF7
S10507A45AD223
S9030000FC
